:020000040800F2
:1000000060020020710100087501000877010008F6
:10001000790100087B0100087D0100080000000054
:100020000000000000000000000000007F01000848
:10003000810100080000000083010008850100081C
:100040008701000887010008870100088701000870
:100050008701000887010008870100088701000860
:100060008701000887010008870100088701000850
:100070008701000887010008870100088701000840
:100080008701000887010008870100088701000830
:100090008701000887010008870100088701000820
:1000A0008701000887010008870100088701000810
:1000B0008701000887010008870100088701000800
:1000C00087010008870100088701000887010008F0
:1000D00087010008870100088701000887010008E0
:1000E00087010008870100088701000800F002F876
:1000F00000F02EF80AA090E8000C82448344AAF194
:100100000107DA4501D100F023F8AFF2090EBAE891
:100110000F0013F0010F18BFFB1A43F0010318473B
:1001200024030000340300000023002400250026DF
:10013000103A28BF78C1FBD8520728BF30C148BF4A
:100140000B6070471FB500F076F91FBD10B510BDEC
:1001500000F035F91146FFF7F5FF00F0ADF800F0BB
:1001600053F903B4FFF7F2FF03BC00F05DF90000A0
:1001700008480047FEE7FEE7FEE7FEE7FEE7FEE78A
:10018000FEE7FEE7FEE7FEE703480449024A044BA8
:1001900070470000ED0000086000002060020020B1
:1001A00060000020002100208322374B1A601A468D
:1001B000126822F480321A601A46126842F48032C1
:1001C0001A6000BF304A126802F40031401C6FF020
:1001D0007042904201D20029F4D02B4A126812F4E6
:1001E000003F4DD0294A126842F01002274B1A6096
:1001F0001A46126822F003021A601A46126842F088
:1002000002021A60204A526843F6F0739A431E4B6A
:100210005A601A46526842F480625A601A4652681E
:1002200022F440325A601A46526842F480325A60D0
:100230001A46526822F470125A601A46526842F402
:10024000C0125A601A46126842F080721A6000BFEB
:100250000D4A126812F0007FFAD00B4A526822F061
:100260000302094B5A601A46526842F002025A6071
:1002700000BF054A526802F00C02082AF9D101E0D9
:1002800000BFFEE77047000000100240002002405F
:100290000FE04FF47A7108E04FF47A7201E0531ED8
:1002A0009AB2002AFBDC4B1E99B20029F4DC431EF3
:1002B00098B20028EDDC7047002400250124FFF7E8
:1002C00071FF00F025F822E000250DE0204600F047
:1002D00064F8802C01D1012401E06006040E0A209C
:1002E000FFF7D6FF681CC5B20F2DEFDB00250CE031
:1002F000204600F052F8012C01D1802400E0641067
:100300000A20FFF7C5FF681CC5B20F2DF0DBDBE745
:1003100030B52748274B9B6943F00803254CA36160
:100320000022AAB1002111E012F0010F0BD00368E6
:100330008D000F24AC40A343036003688D000324A9
:10034000AC402343036052104B1CD9B20829EBDBAD
:10035000FF22AAB1002111E012F0010F0BD0436877
:100360008D000F24AC40A343436043688D000324F9
:10037000AC402343436052104B1CD9B20829EBDB3D
:100380000023C36030BD0A4918B14FF400420A612E
:1003900002E04FF400424A61704701460448C268D7
:1003A00022F47F42C260C26842EA0122C260704702
:1003B000000C0140001002407047704770477546BE
:1003C00000F028F8AE4605006946534620F00700C5
:1003D000854618B020B5FFF7D7FEBDE820404FF0A6
:1003E00000064FF000074FF000084FF0000B21F01F
:1003F0000701AC46ACE8C009ACE8C009ACE8C009EC
:10040000ACE8C0098D4670470446AFF30080204633
:10041000FFF7A7FE00487047000000200148704722
:10042000704700BF0400002001491820ABBEFEE762
:1004300026000200704710B5FFF7F0FF4FF00001F3
:10044000016010BD5404000800000020600200009C
:040450002801000877
:04000005080000ED02
:00000001FF
