:1000030000000000000000000000000000000000ED
:1000130000000000000000000000000000000000DD
:10002300000931212121A1612121212129712000F0
:1000330008068067001F111111FF1111111810001C
:100043000020202021F824232120F8212020200033
:1000530004242427242424040808FF08080F00008C
:1000630000001F12121212FF121212121F000000C0
:1000730000004040404040474850604000010000BD
:1000830000202122272C34E42424242720202000AC
:100093007F404C7241007F52535252527E00000007
:1000A300000001020C70210000700806030101002A
:1000B300000849494949494949494840407F0000A6
:1000C300000000000000000000000000000000002D
:1000D300000000000000000000000000000000001D
:1000E300000000000000000000000000000000000D
:1000F30000000000000000000000000000000000FD
:1001030000000000000201FE0000000000000000EB
:100113002020FF020CF10182641818648603020098
:1001230008700000FC020202C202021E847020005A
:100133001038D01030A072240830C00402FC000034
:100143000000F020202020FC22222222F2020E00B6
:1001530080808080808281FE80808080808080009B
:1001630040800000FF909090949293FE0000000066
:10017300FF004020C000FF0204C030488406040092
:100183000080040E1424C48C0808281E0C80000070
:100193000000F8202020202020F0000402FC0000B2
:1001A300000000000000000000000000000000004C
:1001B300000000000000000000000000000000003C
:0302A70001080F3C
:10024F00E4F5090509E509B450F9050BE50BD3945D
:10025F00DC400FE4F50B050AE50AD394B04003E444
:10026F00F50A0508E508D3940F4003E4F508E4F513
:10027F0090E508250AFF90000393F580EF9000E3C7
:10028F0093F5A0E50854074290E508C3940850047D
:08029F00D29380ACD29480A838
:030000000201C337
:0C01C300787FE4F6D8FD75810B02020A7B
:1001CF0002024FE493A3F8E493A34003F68001F2F5
:1001DF0008DFF48029E493A3F85407240CC8C33331
:1001EF00C4540F4420C8834004F456800146F6DF00
:1001FF00E4800B01020408102040809002A7E47EE7
:10020F00019360BCA3FF543F30E509541FFEE493F4
:10021F00A360010ECF54C025E060A840B8E493A3BB
:10022F00FAE493A3F8E493A3C8C582C8CAC583CAE6
:10023F00F0A3C8C582C8CAC583CADFE9DEE780BE9E
:0102AA000053
:00000001FF
