:1000030000E010080810E000000F102020100F007F
:10001300001010F8000000000020203F2020000006
:10002300007008080888700000302824222130005E
:1000330000300888884830000018202020110E0066
:100043000000C02010F8000000070424243F24000F
:1000530000F80888880808000019212020110E00E4
:1000630000E0108888180000000F112020110E00F6
:1000730000380808C83808000000003F00000000EE
:100083000070880808887000001C222121221C00AF
:1000930000E010080810E0000000312222110F00D8
:1000A30000008080808000000019242222223F204B
:1000B30008F8008080000000003F112020110E008E
:1000C3000000008080800000000E1120202011001D
:1000D300000000808088F800000E112020103F20CF
:1000E3000000808080800000001F22222222130053
:1000F300008080F0888888180020203F202000009E
:100103000000808080808000006B94949493600052
:1001130008F8008080800000203F210000203F205D
:1001230000809898000000000020203F202000005D
:10013300000000809898000000C08080807F00004D
:1001430008F8000080808000203F24022D3020002A
:10015300000808F8000000000020203F20200000D5
:100163008080808080808000203F20003F20003FEF
:100173008080008080800000203F210000203F20FD
:100183000000808080800000001F202020201F00AE
:10019300808000808000000080FFA12020110E00DD
:1001A3000000008080808000000E112020A0FF80CE
:1001B300808080008080800020203F21200001007B
:1001C30000008080808080000033242424241900D0
:1001D300008080E0808000000000001F20200000DD
:1001E3008080000000808000001F202020103F201E
:1001F300808080000080808000010E3008060100AE
:1002030080800080008080800F300C030C300F0052
:1002130000808000808080000020312E0E3120007D
:10022300808080000080808080818E7018060100AD
:1002330000808080808080000021302C22213000CB
:100243000000C038E0000000203C230202273820D1
:1002530008F8888888700000203F202020110E00B5
:10026300C0300808080838000718202020100800AC
:1002730008F808080810E000203F202020100F0095
:1002830008F88888E8081000203F20202320180061
:1002930008F88888E8081000203F200003000000C9
:1002A300C03008080838000007182020221E02006A
:1002B30008F808000008F808203F210101213F2029
:1002C300000808F8080800000020203F2020000054
:1002D30000000808F8080800C08080807F00000044
:1002E30008F888C028180800203F2001263820007D
:1002F30008F8080000000000203F202020203000E4
:1003030008F8F800F8F80800203F003F003F2000FD
:1003130008F830C00008F808203F200007183F0005
:10032300E01008080810E0000F10202020100F0034
:1003330008F808080808F000203F21010101000027
:10034300E01008080810E0000F18242438504F006C
:1003530008F8888888887000203F2000030C30202C
:1003630000708808080838000038202121221C006A
:10037300180808F8080818000000203F20000000B3
:1003830008F808000008F808001F202020201F009C
:100393000878880000C83808000007380E010000FC
:1003A300F80800F80008F800033C0700073C0300C6
:1003B300081868808068180820302C03032C30202C
:1003C3000838C800C83808000000203F200000009B
:1003D30010080808C83808002038262120201800F3
:10064000E4FDFCC3ED9FEC9E50070DBD00010C8046
:01065000F2B7
:010651002286
:10059400EF5402C43354E0FEEF5401C433333354F4
:1005A400804EFEEF540433333354F84EFEEF5408B8
:1005B40025E04EFEEF5410C3134EFEEF54201313E8
:1005C40013541F4EFEEF5440C41354074EFEEF5411
:0905D40080C413131354014EFFFF
:0105DD0022FB
:10065200C2A0C2A11205948F8000D2A200C2A2221F
:10066200D2A0C2A11205948F8000D2A200C2A222FF
:10060700D2A3D2A47F40120652E4FCEC24B8FF1216
:100617000652E4FBE4FF1206620BBB40F70CBC0872
:01062700EAE8
:0106280022AF
:1005DE00AC0753057F530407EDC394405006D2A3D6
:1005EE00C2A48007C2A3D2A453053FED2440FF123C
:0905FE000652EC24B8FF0206527B
:030535000B7F0237
:04053800AA07A90560
:10053C00E4FC1205DEE4FC75F010EBA42CF582E46F
:10054C0035F0F583E5822403F582E5833400F583E9
:10055C00E493FF1206620CBC08DDEA04FFAD011245
:10056C0005DEE4FC75F010EBA42CF582E435F0F517
:10057C0083E582240BF582E5833400F583E493FF55
:07058C001206620CBC08DD41
:010593002245
:10062900C2A57FFA7E00120640D2A5D2A3D2A41297
:0706390006407F3F0206525C
:1003E300120629120607E4FBFDFF1205380B7D08F0
:1003F300E4FF1205380B7D10E4FF1205380B7D185E
:10040300E4FF1205380B7D20E4FF1205380B7D282D
:10041300E4FF1205380B7D30E4FF1205380B7D38FD
:10042300E4FF1205380B7D40E4FF1205380B7D48CD
:10043300E4FF1205380BE4FD7F021205387D081234
:1004430005357D101205350B7D187F021205380B1B
:100453007D207F021205380B7D287F021205380BA1
:100463007D307F021205380B7D387F021205380B71
:100473007D407F021205380B7D487F021205380B41
:100483007D507F021205380B7D587F021205380B11
:100493007D607F021205380B7D687F021205380BE1
:1004A3007D707F021205380B7D787F021205387B41
:1004B30024E4FD7F051205380B7D087F05120538FE
:1004C3000B7D107F051205380B7D187F051205384B
:1004D3000B7D207F051205380B7D287F051205381B
:1004E3000B7D307F051205380B7D387F05120538EB
:1004F3000B7D407F051205380B7D487F05120538BB
:100503000B7D507F051205380B7D587F051205388A
:100513000B7D607F051205380B7D687F051205385A
:100523000B7D707F051205380B7D787F051205382A
:0205330080FE48
:0300000002067283
:0C067200787FE4F6D8FD7581070203E3F1
:00000001FF
