:020000040800F2
:10000000004B0020C1020008ED000008EF000008CE
:10001000F1000008F3000008F500000800000000EF
:10002000000000000000000000000000F7000008D1
:10003000F7000008F70000087B0100089D0F00088A
:100040006D060008A5050008E1050008B9050008CF
:1000500073050008AF0500082D05000837050008E6
:100060004B050008550500085F050008E704000877
:10007000F1040008FB040008050500080F0500084E
:100080001905000823050008C904000859060008DE
:1000900063060008D3040008DD04000869050008B1
:1000A000EB05000809060008FF050008F505000833
:1000B000130600081D06000827060008870500082B
:1000C0007D0500089B05000891050008CD05000886
:1000D000D7050008310600083B0600084506000861
:1000E00041050008C30500084F060008FEE7FEE7CB
:1000F000FEE7FEE7FEE7FEE7DFF80CD000F09CF835
:1001000000480047191C0008004B002072B67047D9
:1001100062B67047EFF3108072B6704780F31088B4
:100120007047B0FA80F0704790FAA0F0704730BF87
:10013000704720BF70470000EFF3108072B6704721
:1001400080F3108870471D484FF0FF0101700020B8
:1001500080F309881A48012101701A484FF0805134
:10016000016062B6FEE717484FF0805101607047AA
:1001700014484FF080510160704772B6EFF3098068
:1001800028B1203880E8F00F0F490968086000B5F1
:100190000E4880475DF804EB0D480E490A7802705E
:1001A00009480D490A680260106890E8F00F203095
:1001B00080F309884EF0040E62B6704722ED00E02D
:1001C0002A00002004ED00E030000020910D00081E
:1001D0002300002024000020380000202DE9F047F3
:1001E000002591469A46074688462E46402418E048
:1001F00022464146384600F041F8B0EB090071EB69
:100200000A010ED322465146484600F027F83F1A0D
:1002100068EB010822460021012000F01FF8451973
:100220004E41201EA4F10104E2DC284631463A4644
:100230004346BDE8F0870000064C074D06E0E06845
:1002400040F0010394E8070098471034AC42F6D31D
:10025000FFF756FFAC1D0008CC1D0008202A04DB68
:100260000023203A00FA02F106E000FA02F391407E
:10027000C2F12002D040014318467047202A04DB17
:10028000203A21FA02F000217047D040C2F1200349
:1002900001FA03F31843D1407047000080F311883E
:1002A0007047EFF31280704761B6704762B67047CF
:1002B00071B6704772B6704730BF704720BF704745
:1002C00000480047F900000870B520A001F04EFB7F
:1002D00025A001F04BFB00F058FE0A2190FBF1F243
:1002E00001FB120400F051FE642190FBF1F201FBCE
:1002F00012000A2190FBF1F500F047FE642190FB0B
:10030000F1F623462A4631461EA001F02FFB4FF49A
:100310007A7123A001F02AFB2648017826A001F07B
:1003200025FB00F0A1F82A49B0FBF1F4214629A0F1
:1003300001F01CFB2D4801682DA001F017FB31488E
:10034000016831A001F012FB70BD00000D0A2020F1
:100350004D69637269756D2075432F4F532D49495F
:1003600020200D0A00000000202053542053544D3B
:1003700033322028436F727465782D4D33290D0A6E
:100380000D0A0000202075432F4F532D49493A2074
:100390002056256C642E256C64256C640D0A0000C3
:1003A00020205469636B526174653A20256C642087
:1003B000200D0A00140000202020435055205573C2
:1003C0006167653A20256C6425202020200D0A00F5
:1003D00040420F0020204350552053706565643A19
:1003E000256C64204D487A20200D0A00440000202E
:1003F0002020235469636B733A20256C6420200D00
:100400000A0000000800002020202343747853775E
:100410003A20256C6420200D0A0D0A0070477047B1
:100420007047000010B500F0CDFD00F095FA15E022
:100430004FF480700A494861642300221146104637
:1004400000F0E2FC4FF4807005490861642300224B
:100450001146104600F0D8FCFFF736FFE8E7000031
:10046000001001407047704700B585B0684601F044
:10047000F3F8019805B000BD10B501F08DF800F05B
:1004800017F900F0C8F94FF4614001F0FBF910BD15
:1004900070B50446FFF73EFE064609480078401C4A
:1004A000074908703046FFF739FE2A2C04D2054868
:1004B00050F8245005B1A84700F0E2F970BD0000E3
:1004C000210000204C02002010B51220FFF7E0FFB1
:1004D00010BD10B51520FFF7DBFF10BD10B51620BD
:1004E000FFF7D6FF10BD10B50B20FFF7D1FF10BDF1
:1004F00010B50C20FFF7CCFF10BD10B50D20FFF795
:10050000C7FF10BD10B50E20FFF7C2FF10BD10B51C
:100510000F20FFF7BDFF10BD10B51020FFF7B8FF8B
:1005200010BD10B51120FFF7B3FF10BD10B50620A8
:10053000FFF7AEFF10BD10B50720FFF7A9FF10BDF4
:1005400010B52820FFF7A4FF10BD10B50820FFF755
:100550009FFF10BD10B50920FFF79AFF10BD10B521
:100560000A20FFF795FF10BD10B51720FFF790FF89
:1005700010BD10B50420FFF78BFF10BD10B5202073
:10058000FFF786FF10BD10B51F20FFF781FF10BDDC
:1005900010B52220FFF77CFF10BD10B52120FFF71A
:1005A00077FF10BD10B50120FFF772FF10BD10B529
:1005B0000520FFF76DFF10BD10B50320FFF768FFA2
:1005C00010BD10B52920FFF763FF10BD10B5232023
:1005D000FFF75EFF10BD10B52420FFF759FF10BDD7
:1005E00010B50220FFF754FF10BD10B51820FFF71B
:1005F0004FFF10BD10B51B20FFF74AFF10BD10B50F
:100600001A20FFF745FF10BD10B51920FFF740FF76
:1006100010BD10B51C20FFF73BFF10BD10B51D200D
:10062000FFF736FF10BD10B51E20FFF731FF10BDDC
:1006300010B52520FFF72CFF10BD10B52620FFF7C1
:1006400027FF10BD10B52720FFF722FF10BD10B502
:100650002A20FFF71DFF10BD10B51320FFF718FF6C
:1006600010BD10B51420FFF713FF10BD10B500200A
:10067000FFF70EFF10BD00000549096821F01001C9
:10068000034A116011460968014311607047000078
:10069000002002400549096801F03801034A116051
:1006A00011460968014311607047000000200240B4
:1006B00008B54FF47060ADF8000003208DF802001B
:1006C00010208DF8030069460E4800F01FF84FF423
:1006D0008060ADF8000004208DF8030069460A48E8
:1006E00000F014F84FF40070ADF8000003208DF80E
:1006F000020018208DF803006946034800F006F850
:1007000008BD00000010014000080140F0B50022C3
:100710000023002400250026002791F803C00CF0D8
:100720000F0291F803C01CF0100F03D091F802C023
:100730004CEA0202B1F800C01CF0FF0F30D006688E
:1007400000242AE04FF0010C0CFA04F5B1F800C0C7
:100750000CEA0503AB421FD1A5004FF00F0C0CFAB9
:1007600005F7BE4302FA05FC4CEA060691F803C001
:10077000BCF1280F05D14FF0010C0CFA04FCC0F8B5
:1007800014C091F803C0BCF1480F05D14FF0010C23
:100790000CFA04FCC0F810C0641C082CD2D306600C
:1007A000B1F800C0BCF1FF0F34DD466800242EE034
:1007B00004F1080C4FF0010E0EFA0CF5B1F800C070
:1007C0000CEA0503AB4221D1A5004FF00F0C0CFA47
:1007D00005F7BE4302FA05FC4CEA060691F803C091
:1007E000BCF1280F05D104F1080C0EFA0CFEC0F87C
:1007F00014E091F803C0BCF1480F07D104F1080CD4
:100800004FF0010E0EFA0CFEC0F810E0641C082C2C
:10081000CED34660F0BD10B500214FF0006000F06F
:100820000FF84FF4E06000F001F810BD02490143F9
:10083000024A1160704700000000FA050CED00E06C
:10084000024A0A400243024B1A60704780FFFF1FB2
:1008500008ED00E010B500F011F800F017FC00F012
:100860003FFC00F061FC00F0E9FB00F0C1FB00F090
:100870008FFC00F0B5FC00F002F810BD7047704727
:1008800010B500241A480078012830D1FFF754FC35
:10089000044618480078002804DD16480078401EF9
:1008A0001449087013480078F0B913480078D8B993
:1008B00000F002FD1148007811490978884213D0F0
:1008C00010480E49097850F821000F490860084681
:1008D0000068806B401C096888630C480068401CF5
:1008E0000A490860FFF744FC2046FFF729FC10BDC9
:1008F0002A000020210000202200002024000020E7
:1009000023000020C008002038000020080000203C
:1009100010B50B48007890B900F0CEFC094800787B
:100920000949087009480749097850F82100084921
:1009300008600846006807490860FFF704FC10BD1E
:100940002A0000202400002023000020C0080020EE
:10095000380000203000002010B50024022000F0F4
:100960001BFAFFF7E9FB044600200B49086020460C
:10097000FFF7E6FB642000F00FFAFFF7DDFB04460B
:1009800005480068054908600120054908702046AF
:10099000FFF7D6FB10BD00002C000020180000203F
:1009A0002000002010B504462046FFF737FD10BD9B
:1009B0002DE9FE4F04460D46164698464FF00009B5
:1009C000FFF7BAFB81461F480078002805DD48463E
:1009D000FFF7B6FB3C20BDE8FE8F1B4850F828000F
:1009E00058BB0120184941F828004846FFF7A8FBEA
:1009F000002332462946204600F028F9824600238B
:100A0000009301931A4651464046029300F082FC3F
:100A1000074637B90D48007801280CD100F012FCC8
:100A200009E0FFF789FB81460020074941F82800CB
:100A30004846FFF785FB3846CDE74846FFF780FB81
:100A40002820C8E721000020C00800202A0000203C
:100A50002DE9F04F87B004460D4616461F46DDE9E6
:100A600012ABDDE9108900200490FFF765FB0490CC
:100A700023480078002806DD0498FFF761FB3C203E
:100A800007B0BDE8F08F1F4850F82700002832D18A
:100A900001201C4941F827000498FFF751FB5146FB
:100AA0004846149A00F05AFD324629462046149BC7
:100AB00000F0CCF80690149BCDE900AB02934346BE
:100AC0004A463846069900F025FC0590059830B94D
:100AD0000D48007801280CD100F0B4FB09E0FFF7C5
:100AE0002BFB04900020074941F827000498FFF7EA
:100AF00027FB0598C4E70498FFF722FB2820BFE7EF
:100B000021000020C00800202A00002010B5044663
:100B10002046FFF784FC10BD10B5FFF781FC10BD27
:100B20002DE9F04704460D4616464FF000091E48D1
:100B30000078002803DD12203070BDE8F087FFF751
:100B4000FBFA8146FF2C03D11848006890F8324028
:100B5000174850F82480B8F1000F05D14846FFF738
:100B6000EFFA43203070E8E7B8F1010F05D14846AD
:100B7000FFF7E6FA43203070DFE7284600F0C0FBBD
:100B800007460F2F05DD4846FFF7DAFA412030709F
:100B9000D3E7294608F14C0000F0A4FB4846FFF7D4
:100BA000CFFA00203070C8E721000020300000207C
:100BB000C008002010B5FFF755FC10BD2DE9F04727
:100BC00004460D464FF0000A002028606860FFF7D9
:100BD000B3FA8246FF2C03D11A48006890F83240DD
:100BE000194850F824602EB95046FFF7A9FA43205F
:100BF000BDE8F087012E04D15046FFF7A1FA43204B
:100C0000F6E7308A10F0010F04D15046FFF798FA4A
:100C10004520EDE74FF00008D6F80C90B768504635
:100C2000FFF78EFA01E008F1010802CF0029FAD09F
:100C30004FEA88002860A9EB080080006860002067
:100C4000D6E7000030000020C008002070B5044640
:100C500010464FF080750560051F28462C606FF028
:100C60000105061F304635604FF01235061F30462D
:100C700035604FF00335061F304635604FF00235C2
:100C8000061F304635606D10061F30463560051F63
:100C9000284629604FF01135061F304635604FF069
:100CA0001035061F304635604FF00935061F3046B7
:100CB00035604FF00835061F304635604FF0073578
:100CC000061F304635604FF00635061F304635604A
:100CD0004FF00535061F304635604FF00435061FCE
:100CE0003046356070BD00002DE9F04104464FF0FC
:100CF0000008FFF721FA8046FF2C05D12048006844
:100D000090F83240012508E01D48006890F8320054
:100D1000A04201D1012500E000251A4850F82460C6
:100D20002EB94046FFF70CFA4820BDE8F081012EAD
:100D300004D14046FFF704FA4320F6E796F83470F2
:100D40001148C05D96F8351088430F49C8550846CC
:100D5000C05D30B996F836100C48007888430B49CE
:100D6000087096F8300040F0080086F830004046E1
:100D7000FFF7E6F9012D01D100F064FA0020D4E775
:100D800030000020C00800202600002025000020A0
:100D900010B5FFF768FB10BD70B504460026164875
:100DA0000078002800DD70BD002C23DDFFF7C4F9BA
:100DB00006461248006890F834501148405D0F49CB
:100DC000096891F8351088430D4948550846405D3B
:100DD00040B90A48006890F836100A4800788843FD
:100DE0000849087005480068C4853046FFF7A8F92F
:100DF00000F028FAD7E70000210000203000002092
:100E000026000020250000202DE9F04704460D466D
:100E100016461F4619480078002802DD5520BDE817
:100E2000F0874FF47A7107FB01F0B0FBF1F14FF45A
:100E300061606043C5EB051200EB8200304400EBBB
:100E40004002C2EBC01001EBC0094FEA19481FFA7B
:100E500089F94846FFF7A0FF0BE04FF40040FFF789
:100E60009BFF4FF40040FFF797FFA8F101001FFA26
:100E700080F8B8F1000FF0DC0020D0E7210000205E
:100E800070B504460025FFF757F90546024804608F
:100E90002846FFF755F970BD4400002070B50026C4
:100EA00000F072F8FFF748F9064631480068401C28
:100EB0002F4908603046FFF743F92E480078012893
:100EC00054D12D48007820B1012804D0022809D13E
:100ED00003E001250BE0002509E00125012026495A
:100EE000087004E0012500202349087000BF00BFFE
:100EF00005B970BD2148046834E0FFF71DF90646C6
:100F0000E08D58B3E08D401E0004000CE08525D133
:100F100094F8300010F0370F08D014F8300F20F09C
:100F20003700207001206070303C02E0002084F81F
:100F3000310094F8300010F0080F0FD13434A0784D
:100F40000F49097808430E49087020780D49085C5C
:100F50006178084314F834190A4A505464693046D9
:100F6000FFF7EEF894F832001F28C6D1C1E7000061
:100F7000440000202A000020400000203C00002007
:100F8000250000202600002070474FF48F70704726
:100F900010B5FFF769FA0446204610BD10B5FFF7FB
:100FA000CBF8044606480078401C054908702046E6
:100FB000FFF7C6F8FFF772FFFFF762FC10BD0000F5
:100FC0002100002010B5FFF7E3FF4FF47A71B0FB6A
:100FD000F1F4601E4FF0E02148610846006940F0DE
:100FE000050008610846006940F00200086110BD74
:100FF00070B58C210F4800F01BF90E4D05F11C0651
:1010000000240AE0002028706E603F20A8720021B2
:10101000E9721C351C36601C84B2042CF2DB002003
:10102000287068603F20A8720021E97201480249D7
:10103000086070BD340400201000002030B54FF46B
:10104000A071104800F0F4F80E4C04F120050023C4
:101050000AE00020207065603F20E07300212174C9
:1010600020342035581C83B2092BF2DB002020707D
:1010700060603F20E073002121740248024908604B
:1010800030BD0000F40200200C00002000200A49BE
:1010900008600A4908700A4908700A4908700A4934
:1010A00008700A4908600A4908600A4908600A4944
:1010B00008600A49087070474400002021000020A1
:1010C000220000202B0000202A0000200800002021
:1010D0002C0000201C000020180000202000002010
:1010E00000220B4B1A700B48002104E0002200F88C
:1010F000012B4A1CD1B20429F8DB0022064B1A70DE
:10110000064B1A70064B1A60064B1A6070470000B7
:1011100025000020260000202300002024000020BD
:10112000380000203000002030B54FF48A611448A8
:1011300000F07EF88021134800F07AF8104C04F19A
:101140005C0500230AE065613F2084F84C00002123
:101150004D2001555C345C35581CC3B20B2BF2D3C7
:10116000002060613F2084F84C0000214D20015593
:1011700000200549086002480449086030BD0000AD
:1011800040090020C00800203C000020340000205E
:1011900000B587B00323002280210B48CDE903234B
:1011A000CDE901014FF6FF7300931F2300F5FE7296
:1011B00000210648FFF74CFC06AA05A11F20FFF7F7
:1011C000AFFC07B000BD0000C0060020711400088D
:1011D00075432F4F532D49492049646C6500000029
:1011E00000B587B00323002280210B48CDE90323FB
:1011F000CDE901014FF6FE7300931E2300F5FE7248
:1012000000210648FFF724FC06AA05A11E20FFF7CF
:1012100087FC07B000BD0000C0040020991400083E
:1012200075432F4F532D49492053746174000000BA
:1012300004E0002200F8012B4A1E91B20029F8DCDC
:101240007047000010B50024FEF776FF04461348EF
:101250000078F0B912480078D8B900F02DF811489C
:10126000007811490978884213D010480D4909784F
:1012700050F821000E49086008460068806B401C49
:10128000096888630B480068401C0A490860FEF73B
:101290006AFF2046FEF754FF10BD00002100002029
:1012A000220000202400002023000020C00800208D
:1012B00038000020080000200649074A1278885CA0
:1012C0000649095C034A515C01EBC001044A1170F4
:1012D00070470000AC1C00082500002026000020FC
:1012E000240000200246002005E011F8013B02F82E
:1012F000013B431CD8B20B78002BF6D1137070471A
:101300000146002002E0491C421CD0B20A78002AA3
:10131000F9D170472DE9F84F04460D4616461F4691
:10132000DDE90B9ADDF8288000200090FEF704FF2D
:1013300000904948D0F800B0BBF1000F7ED046497C
:10134000DBF8140008600098FEF7FAFECBF80050B6
:101350008BF8324000208BF830008BF83100ABF86E
:101360002E00CBF80490CBF80C80CBF80860ABF8DB
:1013700010A0ABF812708BF83700E0108BF8340037
:1013800004F007008BF833009BF8341001208840EC
:101390008BF836009BF83310012088408BF835001D
:1013A0000020CBF81C00CBF82000CBF82800CBF8AD
:1013B0002400CBF83800CBF84000CBF83C00CBF849
:1013C0004400CBF848003F208BF84C0000214D2012
:1013D00000F80B105846FFF7E5FA5846FFF796FB62
:1013E000FEF7AAFE00901D4840F824B01C48006893
:1013F000CBF814000020CBF818001948006818B189
:1014000017480068C0F818B01548C0F800B09BF83D
:101410003600144909780843124908709BF83400D3
:101420001149085C9BF8351008439BF834100E4AAC
:1014300050540E480078401C0C4900E006E008704B
:101440000098FEF77DFE0020BDE8F88F0098FEF7BB
:1014500077FE4220F8E7000034000020C00800209A
:101460003C00002025000020260000202B0000204A
:1014700010B5002400BFFEF75FFE04460548006873
:10148000401C044908602046FEF75AFEFFF744FB63
:10149000F1E700002C00002010B5002402E0C82075
:1014A000FFF77AFC194800780028F8D0184800683F
:1014B0006421B0FBF1F0164908600846006828B9BD
:1014C000002014490870FF20FFF70EFC00BFFEF754
:1014D00033FE0446104800681049086000200E4999
:1014E00008602046FEF72CFE0C4800680849096891
:1014F000B0FBF1F0C0F1640006490870FFF75AFB39
:1015000000F00EF86420FFF747FCE0E72000002021
:1015100018000020140000202C0000201C000020D7
:101520007CB5002614E069463046FFF747FB0546C8
:1015300065B9094850F8264044B1012C06D0D4E9D9
:10154000020100EB810060640198A064701CC6B2C7
:101550001F2EE8DD7CBD0000C008002012F0010F46
:1015600008D012F0020F05D002E0491E002308C087
:101570000029FAD17047000029B1064A9269024356
:10158000044B9A6104E0034A92698243014B9A61D9
:10159000704700000010024010B500F037F84FF41B
:1015A000803000F0F3F800F04BF90446012C24D110
:1015B0001020FFF761F80220FFF76CF8002000F020
:1015C000DBF8002000F012F9A00200F005F94FF45A
:1015D000E011200400F01CF9012000F013F900BF15
:1015E000392000F0A3F80028FAD0022000F01EF9FC
:1015F00000BF00F0B9F80828FBD101213C20FFF71B
:10160000BBFF01218803FFF7B7FF10BD0F4800683B
:1016100040F001000D490860084640680C49084048
:101620000A494860084600680A49084007490860B6
:101630000846006820F4802008600846406820F4CE
:10164000FE004860002088607047000000100240E3
:101650000000FFF8FFFFF6FE30B500210022002356
:1016600000242E4D6D6805F00C0121B1042905D030
:10167000082923D105E02A4D056022E0284D0560A8
:101680001FE0264D6D6805F47012022505EB9242AD
:10169000224D6D6805F480331BB9224D554305601A
:1016A0000BE01E4D6D6815F4003F03D01D4D5543F2
:1016B000056002E01A4D5543056002E0184D0560D3
:1016C00000BF00BF154D6D6805F0F0010909164D0A
:1016D0006C5C0568E5404560104D6D6805F4E0619F
:1016E000090A114D6C5C4568E54085600B4D6D68DD
:1016F00005F46051C90A0C4D6C5C4568E540C56055
:10170000064D6D6805F44041890B074D10356C5C42
:10171000C568B5FBF4F5056130BD0000001002405E
:1017200000127A0000093D00981C000810B501461F
:101730000022002300204A11012A02D1094C23680B
:1017400006E0022A02D1074C236A01E0054C636AD5
:1017500001F01F02012494401C4201D0012000E04E
:10176000002010BD001002400248406800F00C004C
:1017700070470000001002400021034A516821F028
:10178000F00101435160704700100240114909689F
:1017900021F480310F4A11601146096821F480213B
:1017A0001160B0F5803F03D0B0F5802F0ED106E078
:1017B0000849096841F48031064A116007E005498B
:1017C000096841F4A021034A116000E000BF00BF96
:1017D00070470000001002400021034A516821F4C4
:1017E000E061014351607047001002400021044A4B
:1017F000516821F4605141EAC00151607047000016
:101800000010024001490866704700000000424293
:101810000022054B5A6822F47C1240EA01031A4365
:10182000014B5A6070470000001002400021034A3B
:10183000516821F0030101435160704700100240DC
:1018400010B5002400BF3120FFF770FF0C4908706D
:10185000081F0068401C091F0860081D007828B98F
:1018600008460068A0F58071FF39ECD13120FFF700
:101870005DFF08B1012400E00024204610BD0000F7
:10188000040000201FB5044600940020ADF80400B9
:10189000ADF80600ADF80800ADF80C000C20ADF86E
:1018A0000A006946034800F013F80121014800F0DE
:1018B00003F81FBD0038014021B1828942F4005273
:1018C000828104E082894DF6FF731A40828170475D
:1018D0002DE9F04786B004460D460026002700BFDC
:1018E00000BFB246A246268A4CF6FF700640E88842
:1018F00006432682A6894EF6F3100640A888298959
:101900000843698908430643A681A68A4FF6FF402B
:101910000640A8890643A68201A8FFF79DFE54460B
:101920001148824501D1049F00E0039F07EBC700E7
:1019300000EB071029688900B0FBF1F86420B8FBC0
:10194000F0F006013009642101FB1089322101EB1E
:1019500009106421B0FBF1F000F00F00064326816E
:1019600006B0BDE8F0870000003801400FB410B5A4
:1019700003A9044B044A029800F018F810BC5DF863
:1019800014FB0000FD1B00084800002002E008C80E
:10199000121F08C1002AFAD170477047002001E0E9
:1019A00001C1121F002AFBD1704700002DE9FF4F33
:1019B0008DB004469A460F4600260FE1252870D1C7
:1019C0000025641C8C4AA94601212378203B01FA9A
:1019D00003F0104202D00543641CF6E720782E285D
:1019E00018D114F8010F45F004052A280BD157F837
:1019F000049B641C0EE009EB890102EB410100EB42
:101A00000109641C01E06FF02F022078A0F1300181
:101A10000929F0D920786C280CD006DC4C2811D08C
:101A20006A2810D145F400150CE074280AD07A28F1
:101A300009D107E0617845F48015814202D1641C28
:101A400005F58015641C2078692806D015DC00286F
:101A50006FD0632826D06428B1D10A210020CDE9B7
:101A60000A10C5F3025002284BD1FF1D27F00707CB
:101A7000D7E9000B08370C9047E073281CD0752875
:101A80009DD10A200021CDE90A01C5F302500228A8
:101A900058D1FF1D27F00707D7E9001B08370C9125
:101AA00053E0A3E001CF8DF8300000208DF8310025
:101AB0000DF13008012003E057F8048B4FF0FF30A0
:101AC00069074FF000050AD500E06D1C4D450EDAA0
:101AD0008542FADB18F805100029F6D107E000E08E
:101AE0006D1C8542FCDB18F805100029F8D12E4446
:101AF00004E018F8010B52460F9990476D1EF8D27A
:101B00006BE001CF0C904FEAE07B0023C01A7BEB27
:101B1000030107DA0C9840420C906BEB4B0B4FF033
:101B20002D0002E0280505D52B208DF804000120AA
:101B300004E057E0E80708D02020F6E70DF1280878
:101B4000009011E001CF8B460C900020F6E7DDE914
:101B50000A2359460C98FEF741FBA8F101033032E5
:101B60001A7098468B460C9000230C988BEA030160
:101B700058400843EBD102A9A1EB080000F1200B6B
:101B8000680701D44FF001090020D94501DDA9EB18
:101B90000B008146002506E001A8405D52460F99E2
:101BA0009047761C6D1C00988542F5DB04E03020E0
:101BB00052460F999047761CB9F10000A9F101092E
:101BC000F5DC05E018F8010B52460F999047761C9A
:101BD000BBF10000ABF1010BF4DC641C20780028A1
:101BE0007FF4ECAE304611B0BDE8F08F52460F994D
:101BF0009047761CF1E700000928010000BF054A64
:101C0000128812F0800FFAD0C0F30802014B1B1D9E
:101C10001A8070470038014008B5FEF777FAFEF7E2
:101C200019FEFEF729FCFEF74FFB0CA0FFF79EFE06
:101C300002230E4A00210E48FEF7BAFE00900DA0C6
:101C4000FFF794FE6A4611A10220FEF769FF00200B
:101C5000FFF716F9FEF75CFE002008BD4F53204940
:101C60006E6974204F4BA3A10D0A000048020020AA
:101C7000250400084372656174204170705F5461EF
:101C8000736B5374617274A3A10D0A005374617273
:101C900074205461736B0000000000000102030413
:101CA00001020304060708090204060800000100F7
:101CB0000200010003000100020001000400010015
:101CC0000200010003000100020001000500010004
:101CD00002000100030001000200010004000100F5
:101CE00002000100030001000200010006000100E3
:101CF00002000100030001000200010004000100D5
:101D000002000100030001000200010005000100C3
:101D100002000100030001000200010004000100B4
:101D200002000100030001000200010007000100A1
:101D30000200010003000100020001000400010094
:101D40000200010003000100020001000500010083
:101D50000200010003000100020001000400010074
:101D60000200010003000100020001000600010062
:101D70000200010003000100020001000400010054
:101D80000200010003000100020001000500010043
:101D90000200010003000100020001000400010034
:101DA000020001000300010002000100CC1D000838
:101DB000000000204C0000008C190008181E0008CC
:101DC0004C000020440D00009C1900080000000099
:101DD0000000000000000000000000000000000003
:101DE00000000000000000000000000000000000F3
:101DF00000000000000000000000000000000000E3
:101E000000000000000000000000000000000000D2
:081E10000000000000000000CA
:04000005080002C12C
:00000001FF
