:10010000E4FEC2B4EF30E704D2B58002C2B5D2B487
:08011000EF25E0FF0EBE08EA36
:0101180022C4
:10011900D2B4E4FFFE00C2B4EF25E0FF30B70343D9
:080129000701D2B40EBE08ED7F
:0101310022AB
:10014900D2B400C2B67F051201001201195307018A
:05015900D2B600D2B493
:01015E00227E
:080003008F0F8E0E8D0D8C0C89
:10000B00120149EF640160F8AB0FAF0FAE0EAD0DEF
:10001B00AC0C78081200C78F0F8E0E8D0D8C0CAAAE
:10002B000778081200C78F0F8E0E8D0D8C0CAD0745
:10003B00C2B67F03120100AF05120100AF0212011D
:0F004B0000AF03120100120119D2B60000D2B4A7
:01005A002283
:0D015F00D296D2970000C2960000C29722EF
:0D016C00C296D2970000D2960000C29722E2
:1000DA00E4FEEF30E704D2968002C2960000D2977F
:1000EA00EF25E0FF00C297000EBE08E6D29600D2C6
:0500FA00970000C29711
:0100FF0022DE
:10013200AD0712015F7F901200DA7F401200DAAF42
:07014200051200DA02016C56
:10005B00E4750B2CF50AF509F508E4FAF9F8E50B4C
:10006B002401F50BEA350AF50AE93509F509E835F6
:10007B0008F5087F2F7E267D047C00AB0BAA0AA90E
:10008B0009F8D31200B1400AE4750B2DF50AF509F6
:10009B00F508AF0BAE0AAD09AC08120003EFC313A2
:0600AB00FF12013280B4D7
:0300000002017981
:0C017900787FE4F6D8FD75810F02005B72
:1000B100EB9FF5F0EA9E42F0E99D42F0EC6480C8C6
:0600C10064809845F02266
:1000C700E8600FECC313FCED13FDEE13FEEF13FF17
:0300D700D8F1223B
:00000001FF
