:0300000002020CED
:0C020C00787FE4F6D8FD758120020253D3
:0A0486003F065B4F666D7D077F6F38
:100443000108001009003F003F003F003F003F004C
:050453003F003F003FE7
:10000E00E4F519F51AF51BF51C12045920B031123E
:10001E00042620B007AD1A7F02120407C3E51E9412
:10002E0032E51D9400501020B20D051EE51E700223
:10003E00051D12042680E5E4F51DF51EF51DF51EC1
:10004E0020B13012042620B10A7F021203B9751BAB
:10005E00008F1CC3E51E9432E51D9400501020B194
:10006E000D051EE51E7002051D12042680E5E4F541
:10007E001DF51E20B23B12042620B208051AE51A01
:10008E0070020519C3E51E9432E51D940050102030
:10009E00B20D051EE51E7002051D12042680E5E454
:1000AE00F51DF51EB51A0AE519B40105E4F519F5A5
:1000BE001A20B32B12042620B305E4F519F51AC342
:1000CE00E51E9432E51D9400501020B30D051EE57B
:1000DE001E7002051D12042680E5E4F51DF51EAE08
:1000EE001BAF1C7C037DE812031E74862FF58274F1
:1000FE00043EF583E493750900F50AAE1BAF1C7C34
:10010E00037DE812031EAA04AB057D647C00AF03D9
:10011E00AE0212031E74862FF58274043EF583E43C
:10012E0093750B00F50C7D647C00AF03AE021203D9
:10013E001EAA04AB057D0A7C00AF03AE0212031E9D
:10014E0074862FF58274043EF583E493750D00F5E5
:10015E000E7D0A7C00AF03AE0212031E74862DF5CF
:10016E008274043CF583E493750F00F510AE19AF5D
:10017E001A7C037DE812031E74862FF58274043EEA
:10018E00F583E493751100F512AE19AF1A7C037D59
:10019E00E812031EAA04AB057D647C00AF03AE0219
:1001AE0012031E74862FF58274043EF583E4937554
:1001BE001300F5147D647C00AF03AE0212031EAA79
:1001CE0004AB057D0A7C00AF03AE0212031E7486DB
:1001DE002FF58274043EF583E493751500F5167DB4
:1001EE000A7C00AF03AE0212031E74862DF58274D4
:0E01FE00043CF583E493751700F51802001A0F
:10045900758902758C9C758A9CD2A9D2AFD28C22DF
:040426007F017E00D4
:10042A00D3EF9400EE9400400F7D267C82DCFEDD43
:08043A00FAEF1F70EB1E80E8D1
:010442002297
:100407008F1F8D201204697D017FA01203737D0168
:0F041700AF1F120373E4FDAF20120373020490B2
:0203B9008F1F94
:1003BB001204697D017FA01203737D01AF1F12032D
:1003CB00731204697D017FA11203731203E18F2065
:0503DB00120490AF20A8
:0103E00022FA
:03000B0002029856
:10029800C0E0C083C082C0D075D000C000758000A7
:1002A800E508B40800504D9002B6F82828730202F9
:1002B800CE0202D20202DA0202DE0202E60202EAFA
:1002C8000202F20202F6C2A28002D2A2C2A3C2A411
:1002D8008022C2A28002D2A2D2A3C2A48016C2A245
:1002E8008002D2A2C2A3D2A4800AC2A28002D2A251
:1002F800D2A3D2A4E50825E02409F808E6F580058C
:1003080008E508D394074003750800D000D0D0D082
:0603180082D083D0E03228
:0504780012047DD2A179
:08047D007F017E02DEFEDFFAC2
:010485002254
:0F046900D2A0120478C2A012047DC2A102047DA9
:0A049000C2A0120478D2A002047D7D
:04037300AB07A90526
:10037700E4FDFAEBC4131313540124FF92A0EB25F9
:10038700E0FB120478C2A112047D0DBD08E5D2A0DE
:1003970012047DD2A130A012B9010F0AEAD394C882
:1003A70040F3C2A112047D7F0022C2A112047D7F07
:0103B7000144
:0103B8002222
:1003E100E4FDFCD2A012047DD2A112047DEC25E033
:1003F100FCA2A0E433420412047DC2A112047D0DCB
:05040100BD08E5AF0499
:0104060022D3
:1002180002000EE493A3F8E493A34003F68001F2EE
:1002280008DFF48029E493A3F85407240CC8C333E7
:10023800C4540F4420C8834004F456800146F6DFB6
:10024800E4800B0102040810204080900443E47EFF
:10025800019360BCA3FF543F30E509541FFEE493AB
:10026800A360010ECF54C025E060A840B8E493A372
:10027800FAE493A3F8E493A3C8C582C8CAC583CA9D
:10028800F0A3C8C582C8CAC583CADFE9DEE780BE55
:0104580000A3
:10031E00BC000BBE0029EF8DF084FFADF022E4CCC3
:10032E00F875F008EF2FFFEE33FEEC33FCEE9DEC8C
:10033E00984005FCEE9DFE0FD5F0E9E4CEFD22EDD2
:10034E00F8F5F0EE8420D21CFEADF075F008EF2F1C
:10035E00FFED33FD4007985006D5F0F222C398FD0D
:05036E000FD5F0EA22AA
:00000001FF
