:020000040800F2
:1000000088020020490500084D0500084F0500083A
:1000100051050008530500085505000800000000C0
:10002000000000000000000000000000570500086C
:1000300059050008000000005B0500085D05000888
:1000400097040008990400089B0400089D04000818
:100050009F040008A1040008DD040008DF04000874
:10006000E1040008E3040008E50400085F05000857
:100070005F0500085F0500085F0500085F050008D0
:100080005F0500085F0500085F050008F704000829
:10009000F9040008FB040008FD040008FF04000840
:1000A000010500080305000805050008070500080C
:1000B000090500080B0500080D0500080F050008DC
:1000C00011050008130500081505000817050008AC
:1000D000190500081B0500081D0500081F0500087C
:1000E00021050008230500082505000800F002F896
:1000F00000F03CF80AA090E8000C82448344AAF186
:100100000107DA4501D100F031F8AFF2090EBAE883
:100110000F0013F0010F18BFFB1A43F0010318473B
:10012000A4080000C4080000103A24BF78C878C1B1
:10013000FAD8520724BF30C830C144BF04680C60ED
:10014000704700000023002400250026103A28BF35
:1001500078C1FBD8520728BF30C148BF0B60704739
:100160001FB5AFF300801FBD10B510BD00F009FA38
:100170001146FFF7F5FF00F05DF800F027FAFFF7F2
:10018000F3FF00F02DFA000000E0401E0028FCD133
:10019000704708B500214FF0006000F0D7FA052045
:1001A0008DF8000000208DF801008DF8020001207C
:1001B0008DF80300684600F08EFA08BD10B500F017
:1001C000E7FA4FF4803000F07FFB00F0D7FB9C494A
:1001D000087008460078012825D1102000F00CFA9C
:1001E000002000F015FA002000F064FB002000F071
:1001F000A1FB002000F094FB4FF44021881000F098
:10020000A9FB012000F0A0FB00BF392000F028FB73
:100210000028FAD0022000F0A7FB00BF00F042FB4C
:100220000828FBD101E000BFFEE710BD10B5FFF7C5
:10023000C5FF10BD10B5FFF7F9FF824800F0C6FA00
:10024000012000F09FFAFFF7A4FF01210C2000F02D
:1002500087FA4FF470707C49088003208870102062
:10026000C8707A4800F0E0F94FF42071774800F048
:100270002EFA062000F04EFB0BE0744800F024FA42
:10028000C04384B22146714800F023FA7048FFF75A
:100290007BFFF2E710B500F07BFA4FF4803000F0FE
:1002A00013FB00F06BFB66490870084600780128D4
:1002B00017D1102000F0A0F9002000F0A9F90020CB
:1002C00000F0F8FA002000F035FB002000F028FBD9
:1002D000012000F049FB00BF00F0E4FA0428FBD144
:1002E00001E000BFFEE710BD10B500F051FA4FF479
:1002F000803000F0E9FA00F041FB514908700846EF
:100300000078012826D1102000F076F9012000F0B5
:100310007FF9002000F0CEFA002000F00BFB002057
:1003200000F0FEFA4FF4E0114FF4403000F012FB01
:10033000012000F009FB00BF392000F091FA0028ED
:10034000FAD0022000F010FB00BF00F0ABFA082842
:10035000FBD101E000BFFEE710BD10B500F018FAB8
:100360004FF4803000F0B0FA00F008FB3449087018
:1003700008460078012826D1102000F03DF9012020
:1003800000F046F9002000F095FA002000F0D2FAC3
:100390004FF4806000F0C4FA4FF48011081100F0AF
:1003A000D9FA012000F0D0FA00BF392000F058FA45
:1003B0000028FAD0022000F0D7FA00BF00F072FA4D
:1003C0000828FBD101E000BFFEE710BD10B500F02A
:1003D000DFF94FF4803000F077FA00F0CFFA1849D7
:1003E000087008460078012827D1102000F004F991
:1003F000022000F00DF9002000F05CFA002000F06F
:1004000099FA4FF4806000F08BFA4FF4E0114FF44A
:10041000803000F09FFA012000F096FA00BF3920EA
:1004200000F01EFA0028FAD0022000F09DFA00BF6A
:1004300000F038FA0828FBD101E000BFFEE710BD4C
:10044000040000201000002000000020000C0140EB
:10045000FFFF0F0010B5802000F01AFA70B14FF4C2
:10046000803000F031FA0121082000F047FA012124
:10047000102000F043FA802000F07EF910BD00BF8C
:10048000FEE700BFFEE700BFFEE700BFFEE77047E4
:1004900070477047704770477047704770477047A4
:1004A00010B5082000F0F4F948B1082000F064F914
:1004B000312000F0D5F910B1012000F045FA1020EC
:1004C00000F0E6F948B1102000F056F9392000F0AC
:1004D000C7F910B1022000F047FA10BD704770470D
:1004E0007047704770477047704770477047704754
:1004F0007047704770477047704770477047704744
:100500007047704770477047704770477047704733
:100510007047704770477047704770477047704723
:100520007047704770477047704770477047704713
:100530007047704770477047704770477047704703
:10054000704770477047704708480047FEE7FEE76E
:10055000FEE7FEE7FEE7FEE7FEE7FEE7FEE7FEE773
:1005600003480449024A044B70470000ED000008AC
:100570008800002088020020880000207047704713
:100580007047754600F028F8AE46050069465346A8
:1005900020F00700854618B020B5FFF7E1FFBDE861
:1005A00020404FF000064FF000074FF000084FF0DA
:1005B000000B21F00701AC46ACE8C009ACE8C0096B
:1005C000ACE8C009ACE8C0098D4670470446AFF3FB
:1005D00000802046FFF7D3FD00487047240000202C
:1005E00003494FF01800ABBE70470000090000003F
:1005F000260002007047000004490A6822F0100239
:100600000A600A6802430A60704700000020024046
:1006100004490A6802F038020A600A6802430A6064
:100620007047000000200240F0B5CB780022DC06C5
:1006300003F00F0301D58C7823430C880F2714F0A7
:10064000FF0F4FF0010C1CD0D0F800500E880CFAB0
:1006500002F42640A64210D1960007FA06FE25EACB
:100660000E0E03FA06F5CE7845EA0E05282E00D1C7
:100670004461CE78482E00D10461521C082AE5D38B
:1006800005600A88FF2A1ED94568002202F1080683
:100690000CFA06F40E882640A64210D1960007FAFE
:1006A00006FE25EA0E0E03FA06F5CE7845EA0E059B
:1006B000282E00D14461CE78482E00D10461521C0E
:1006C000082AE3D34560F0BDC06880B2704701617D
:1006D0007047C1607047F0B50F23C27801784FF0C2
:1006E000E024012742B3D4F80C2D467802F4E062EE
:1006F000C2F5E062120AC2F10405D3408278AE402E
:100700001A40324315018A07D20E954021F00301A9
:100710000B19D3F80064FF2191408E430D402E4306
:10072000C3F800640078410900F01F0004EB810168
:100730008740C1F80071F0BD01F01F0087404809F3
:1007400004EB8000C0F88071F0BD0000024A114047
:10075000014302480160704780FFFF1F08ED00E081
:10076000044A0029916901D0014300E0814391616D
:100770007047000000100240014988727047000075
:10078000001002400149C864704700000000424266
:100790000B48016841F0010101604168094A1140BC
:1007A00041600168084A11400160016821F480211C
:1007B00001604268002122F4FE02426081607047BD
:1007C000001002400000FFF8FFFFF6FE30B5204A9F
:1007D0005168204B11F00C0103D0042901D00829E5
:1007E00001D0036011E05168022401F4701104EBA0
:1007F00091415468184D14F4803F02D05468A4030A
:1008000001D5694300E0594301605168134B01F081
:10081000F00109095C5C0168E1404160546804F43E
:10082000E064240A1C5D21FA04F48460546804F432
:100830006054E40A1B5DD940C1605268074B02F462
:100840004042920B1B1F9A5CB1FBF2F1016130BD7B
:100850000010024000127A0000093D00B4090008AF
:10086000034600205909094A012901D1116804E011
:10087000022901D1116A00E0516A03F01F0201232D
:1008800093400B4200D0012070470000001002404E
:100890000349024689680020114200D001207047B8
:1008A000001002400248406800F00C007047000051
:1008B00000100240034A516821F0F00101435160E9
:1008C00070470000001002400B490A6822F4803291
:1008D0000A600A68B0F5803F22F480220A6007D0DF
:1008E000B0F5802F03D1086840F4A020086070475D
:1008F000086840F48030F9E700100240044A0029FB
:10090000517A01D0014300E08143517270470000E9
:10091000001002400149C8717047000000100240F9
:10092000034A516821F4E0610143516070470000BF
:1009300000100240034A516821F4605141EAC000AE
:10094000506070470010024001490866704700007F
:1009500000004242034B5A68084322F47C121043C1
:100960005860704700100240034A516821F00301AB
:1009700001435160704700000010024030B50B4C3D
:1009800040F2FF153120FFF76BFF20706068401CBC
:100990006060207810B96068A842F3D13120FFF779
:1009A0005FFF002800D0012030BD000008000020BB
:1009B000020406080000000001020304010203040F
:1009C00006070809E40900080000002010000000E4
:1009D00028010008F4090008100000207802000037
:1009E00044010008000000000000000000000000BA
:0409F0000000000003
:04000005080000ED02
:00000001FF
