:1000030000E010080810E000000F102020100F007F
:10001300001010F8000000000020203F2020000006
:10002300007008080888700000302824222130005E
:1000330000300888884830000018202020110E0066
:100043000000C02010F8000000070424243F24000F
:1000530000F80888880808000019212020110E00E4
:1000630000E0108888180000000F112020110E00F6
:1000730000380808C83808000000003F00000000EE
:100083000070880808887000001C222121221C00AF
:1000930000E010080810E0000000312222110F00D8
:1000A30000008080808000000019242222223F204B
:1000B30008F8008080000000003F112020110E008E
:1000C3000000008080800000000E1120202011001D
:1000D300000000808088F800000E112020103F20CF
:1000E3000000808080800000001F22222222130053
:1000F300008080F0888888180020203F202000009E
:100103000000808080808000006B94949493600052
:1001130008F8008080800000203F210000203F205D
:1001230000809898000000000020203F202000005D
:10013300000000809898000000C08080807F00004D
:1001430008F8000080808000203F24022D3020002A
:10015300000808F8000000000020203F20200000D5
:100163008080808080808000203F20003F20003FEF
:100173008080008080800000203F210000203F20FD
:100183000000808080800000001F202020201F00AE
:10019300808000808000000080FFA12020110E00DD
:1001A3000000008080808000000E112020A0FF80CE
:1001B300808080008080800020203F21200001007B
:1001C30000008080808080000033242424241900D0
:1001D300008080E0808000000000001F20200000DD
:1001E3008080000000808000001F202020103F201E
:1001F300808080000080808000010E3008060100AE
:1002030080800080008080800F300C030C300F0052
:1002130000808000808080000020312E0E3120007D
:10022300808080000080808080818E7018060100AD
:1002330000808080808080000021302C22213000CB
:100243000000C038E0000000203C230202273820D1
:1002530008F8888888700000203F202020110E00B5
:10026300C0300808080838000718202020100800AC
:1002730008F808080810E000203F202020100F0095
:1002830008F88888E8081000203F20202320180061
:1002930008F88888E8081000203F200003000000C9
:1002A300C03008080838000007182020221E02006A
:1002B30008F808000008F808203F210101213F2029
:1002C300000808F8080800000020203F2020000054
:1002D30000000808F8080800C08080807F00000044
:1002E30008F888C028180800203F2001263820007D
:1002F30008F8080000000000203F202020203000E4
:1003030008F8F800F8F80800203F003F003F2000FD
:1003130008F830C00008F808203F200007183F0005
:10032300E01008080810E0000F10202020100F0034
:1003330008F808080808F000203F21010101000027
:10034300E01008080810E0000F18242438504F006C
:1003530008F8888888887000203F2000030C30202C
:1003630000708808080838000038202121221C006A
:10037300180808F8080818000000203F20000000B3
:1003830008F808000008F808001F202020201F009C
:100393000878880000C83808000007380E010000FC
:1003A300F80800F80008F800033C0700073C0300C6
:1003B300081868808068180820302C03032C30202C
:1003C3000838C800C83808000000203F200000009B
:1003D30010080808C83808002038262120201800F3
:10061900E4FDFCC3ED9FEC9E50070DBD00010C806D
:01062900F2DE
:01062A0022AD
:10056D00EF5402C43354E0FEEF5401C4333333541B
:10057D00804EFEEF540433333354F84EFEEF5408DF
:10058D0025E04EFEEF5410C3134EFEEF542013130F
:10059D0013541F4EFEEF5440C41354074EFEEF5438
:0905AD0080C413131354014EFF26
:0105B6002222
:10062B00C2A0C2A112056D8F8000D2A200C2A2226D
:10063B00D2A0C2A112056D8F8000D2A200C2A2224D
:1005E000D2A3D2A47F4012062BE4FCEC24B8FF1265
:1005F000062BE4FBE4FF12063B0BBB40F70CBC08E8
:01060000EA0F
:0106010022D6
:1005B700AC0753057F530407EDC394405006D2A3FD
:1005C700C2A48007C2A3D2A453053FED2440FF1263
:0905D700062BEC24B8FF02062BF0
:04050D00AB07E4FF55
:04051100AA07A90587
:10051500E4FC1205B7E4FC75F010EBA42CF582E4BD
:1005250035F0F583E5822403F582E5833400F58310
:10053500E493FF12063B0CBC08DDEA04FFAD011293
:1005450005B7E4FC75F010EBA42CF582E435F0F565
:1005550083E582240BF582E5833400F583E493FF7C
:0705650012063B0CBC08DD8F
:01056C00226C
:10060200C2A57FFA7E00120619D2A5D2A3D2A412E5
:0706120006197F3F02062BD1
:1003E3001206021205E00509E50970020508D39417
:1003F30020E508944E40EFE4F508F509050BE50BFD
:100403007002050AFFAE0AE4FCFD7B507AC3F9F8DB
:100413001204F75005E4F50AF50BAE0AAF0B7C277F
:100423007D101204A2AB07E4FDFF120511AE0AAF63
:100433000B7C277D101204A27E037FE8CFCDCFCEA5
:10044300CCCE1204A27D0812050DAE0AAF0B7C03BD
:100453007DE81204A27E007F64CFCDCFCECCCE1236
:1004630004A27D1012050DAE0AAF0B7C007D641251
:1004730004A27E007F0ACFCDCFCECCCE1204A2AB96
:10048300077D18E4FF120511AE0AAF0B7C007D0A4D
:0F0493001204A2AB057D20E4FF1205110203E95C
:0300000002064BAA
:0C064B00787FE4F6D8FD75810B0203E314
:1004A200BC000BBE0029EF8DF084FFADF022E4CC3E
:1004B200F875F008EF2FFFEE33FEEC33FCEE9DEC07
:1004C200984005FCEE9DFE0FD5F0E9E4CEFD22ED4D
:1004D200F8F5F0EE8420D21CFEADF075F008EF2F97
:1004E200FFED33FD4007985006D5F0F222C398FD88
:0504F2000FD5F0EA2225
:1004F700EB9FF5F0EA9E42F0E99D42F0EC6480C87C
:0605070064809845F0221B
:00000001FF
