:020000040800F2
:10000000780200207D0300088103000883030008B4
:10001000850300088703000889030008000000002A
:100020000000000000000000000000008B0300083A
:100030008D030008000000008F03000891030008F2
:10004000D3020008D5020008D7020008D902000830
:10005000DB020008DD020008DF020008E102000800
:10006000E3020008E5020008E70200089303000825
:100070009303000893030008930300089303000808
:10008000930300089303000893030008F902000893
:10009000FB020008FD020008FF020008010300083F
:1000A0002F0300083103000833030008350300085C
:1000B00037030008390300083B0300083D0300082C
:1000C0003F030008410300084303000845030008FC
:1000D00047030008490300084B0300084D030008CC
:1000E0004F030008510300085303000800F002F812
:1000F00000F03CF80AA090E8000C82448344AAF186
:100100000107DA4501D100F031F8AFF2090EBAE883
:100110000F0013F0010F18BFFB1A43F0010318473B
:10012000FC0600001C070000103A24BF78C878C104
:10013000FAD8520724BF30C830C144BF04680C60ED
:10014000704700000023002400250026103A28BF35
:1001500078C1FBD8520728BF30C148BF0B60704739
:100160001FB5AFF300801FBD10B510BD00F023F91F
:100170001146FFF7F5FF00F07DF800F041F9FFF7B9
:10018000F3FF00F047F9000008B54FF48070ADF8B8
:10019000000003208DF8020010208DF8030069464E
:1001A000424800F0D1F94020ADF8000004208DF85D
:1001B000030069463D4800F0C7F908BD08B50021B5
:1001C0004FF0006000F060FA4FF4C06000F052FAA7
:1001D00017208DF8000000208DF801008DF8020036
:1001E00001208DF80300684600F00AFA08BD10B53A
:1001F00000F06AFA4FF4803000F0AEFA00F0F4FA42
:100200002B4908700846007801282ED1102000F0F4
:100210006FF9022000F078F9002000F093FA002036
:1002200000F0BEFA4FF4806000F0B0FA4FF4804066
:1002300000F034FA4FF4E0114FF4803000F0C0FACF
:100240004FF4804000F02AFA012000F0B3FA00BF1A
:10025000392000F057FA0028FAD0022000F0BAFA4C
:1002600000BF00F067FA0828FBD101210D2000F043
:100270001FFA10BD10B5FFF7BAFFFFF79FFFFFF79A
:1002800083FF0621012000F04BF940200949086056
:10029000002008710C20487101208871084600F088
:1002A000E1F8402000F0C8F800BFFEE7000C014074
:1002B0000800002000000020704700BFFEE700BFDC
:1002C000FEE700BFFEE700BFFEE7704770477047DC
:1002D0007047704770477047704770477047704766
:1002E0007047704770477047704770477047704756
:1002F0007047704770477047704770477047704746
:1003000010B5402000F0A0F880B14FF480711A4879
:1003100000F06AF9C0F10100C4B222464FF48071C6
:10032000154800F068F9402000F080F810BD7047D3
:100330007047704770477047704770477047704705
:1003400070477047704770477047704770477047F5
:1003500070477047704770477047704770477047E5
:1003600070477047704770477047704770477047D5
:100370007047704770470000000C01400848004774
:10038000FEE7FEE7FEE7FEE7FEE7FEE7FEE7FEE745
:10039000FEE7FEE703480449024A044B70470000A9
:1003A000ED0000087800002078020020780000208E
:1003B000704770477047754600F028F8AE46050054
:1003C0006946534620F00700854618B020B5FFF770
:1003D000E1FFBDE820404FF000064FF000074FF06E
:1003E00000084FF0000B21F00701AC46ACE8C00953
:1003F000ACE8C009ACE8C009ACE8C0098D4670475C
:100400000446AFF300802046FFF7B9FE004870476E
:100410001400002003494FF01800ABBE70470000E5
:100420000900000026000200704700000149086032
:10043000704700001404014002490A6802430A6040
:100440007047000010040140054B01461A68002067
:100450005B690A400B4202D0002A00D0012070479D
:100460000004014010B5837920490268A3B3D1F894
:1004700000349343C1F80034D1F8042403689A434C
:10048000C1F80424027904680A44D2F800342343F2
:10049000C2F80034D1F8082403689A43C1F808244C
:1004A000D1F80C2403689A43C1F80C244279102A2D
:1004B0000AD101F581610A6803681A430A604A6833
:1004C000006802434A6010BD1144D1F8002400685E
:1004D0000243C1F8002410BDFFE700790844D0F8BA
:1004E00000149143C0F80014F5E70000000001403B
:1004F00004490A6822F010020A600A6802430A608E
:10050000704700000020024004490A6802F03802E7
:100510000A600A6802430A60704700000020024037
:1005200010B58A0721F003040649120F21440F2356
:100530008C6893409C438C608B68904003438B6035
:1005400010BD000000000140F0B5CB780022DC06B1
:1005500003F00F0301D58C7823430C880F2714F088
:10056000FF0F4FF0010C1CD0D0F800500E880CFA91
:1005700002F42640A64210D1960007FA06FE25EAAC
:100580000E0E03FA06F5CE7845EA0E05282E00D1A8
:100590004461CE78482E00D10461521C082AE5D36C
:1005A00005600A88FF2A1ED94568002202F1080664
:1005B0000CFA06F40E882640A64210D1960007FADF
:1005C00006FE25EA0E0E03FA06F5CE7845EA0E057C
:1005D000282E00D14461CE78482E00D10461521CEF
:1005E000082AE3D34560F0BD0246D26800200A42E3
:1005F00000D0012070470AB1016170474161704726
:10060000F0B50F23C27801784FF0E024012742B300
:10061000D4F80C2D467802F4E062C2F5E062120ACA
:10062000C2F10405D3408278AE401A40324315012E
:100630008A07D20E954021F003010B19D3F800640C
:10064000FF2191408E430D402E43C3F80064007893
:10065000410900F01F0004EB81018740C1F80071DF
:10066000F0BD01F01F008740480904EB8000C0F88E
:100670008071F0BD024908430249086070470000DC
:100680000000FA050CED00E0024A11400143024867
:100690000160704780FFFF1F08ED00E0034A5168CA
:1006A00021F44041014351607047000000100240B6
:1006B000044A0029916901D0014300E0814391611E
:1006C00070470000001002400B48016841F0010132
:1006D00001604168094A114041600168084A1140BF
:1006E0000160016821F4802101604268002122F448
:1006F000FE02426081607047001002400000FFF877
:10070000FFFFF6FE034600205909094A012901D1DD
:10071000116804E0022901D1116A00E0516A03F076
:100720001F02012393400B4200D0012070470000BC
:10073000001002400248406800F00C0070470000C2
:1007400000100240034A516821F0F001014351605A
:1007500070470000001002400B490A6822F4803202
:100760000A600A68B0F5803F22F480220A6007D050
:10077000B0F5802F03D1086840F4A02008607047CE
:10078000086840F48030F9E700100240034A5168DD
:1007900021F4E06101435160704700000010024005
:1007A000034A516821F4605141EAC000506070472B
:1007B00000100240014908667047000000004242F4
:1007C000034B5A68084322F47C1210435860704768
:1007D00000100240034A516821F0030101435160B7
:1007E000704700000010024030B50B4C40F2FF157E
:1007F0003120FFF787FF20706068401C6060207820
:1008000010B96068A842F3D13120FFF77BFF0028C0
:1008100000D0012030BD00000C0000203C08000882
:100820000000002014000000280100085008000803
:1008300014000020640200004401000800000000D1
:1008400000000000000000000000000000000000A8
:040000050800037D6F
:00000001FF
