:10008400E4FDFCC3ED9FEC9E50070DBD00010C8008
:01009400F279
:010095002248
:0E00A600D287C2A5D2A4D2A32087FDC2A32276
:050096001200847F3818
:0B009B00C2A5C2A48F80D2A3C2A32282
:0600D8001200A602009BCD
:0E00B4001200A6D2A5C2A48F80D2A3C2A3229E
:10006C00AE0753060F530501ED7003EE8003EE242B
:08007C00404480FF1200D8226D
:100042007FDC7E051200967FF47E011200967FF41B
:100052001200961200D87F081200D87F011200D831
:0A0062007F061200D87F0C0200D8C0
:0A00CE00AC0312006CAF040200B492
:10000300120042750866E50875F064842430FBE449
:10001300FDFF1200CEE50875F06484E5F075F00A83
:10002300842430FBE4FD7F011200CEE50875F00A5D
:0F00330084E5F02430FBE4FD7F021200CE80C490
:030000000200C239
:0C00C200787FE4F6D8FD75810802000389
:00000001FF
