:0A00E6003F065B4F666D7D077F6FDC
:03001700010809D4
:03001B000200AA36
:1000AA00C0E0C083C082C0D0050AE50A7002050913
:1000BA00D3940FE5099427401A750900750A0005BB
:1000CA0008E508D394094003750800E5089000E69E
:0C00DA0093F5A0D0D0D082D083D0E032CB
:1000030053890F438920758B47758D47D28ED2ABA9
:04001300D2AF80FEEA
:0300000002001EDD
:0C001E00787FE4F6D8FD75810A020065C9
:10002A00020003E493A3F8E493A34003F68001F2E9
:10003A0008DFF48029E493A3F85407240CC8C333D7
:10004A00C4540F4420C8834004F456800146F6DFA6
:10005A00E4800B0102040810204080900017E47E1F
:10006A00019360BCA3FF543F30E509541FFEE4939B
:10007A00A360010ECF54C025E060A840B8E493A362
:10008A00FAE493A3F8E493A3C8C582C8CAC583CA8D
:10009A00F0A3C8C582C8CAC583CADFE9DEE780BE45
:01001A0000E5
:00000001FF
