:0300000002008774
:0C008700787FE4F6D8FD75810D0200932F
:10007700F1F3F2F6F4FCF8F9F9F8FCF4F6F2F3F11F
:10005D00E4F50DE50D90007793541FF59012003BDC
:09006D00050DE50DC3940840EAFD
:010076002267
:10003B00AC08AD09ED1DAA0470011C4A6013E4FE67
:10004B00FFC3EF9464EE940050EA0FBF00010E80E3
:01005B00F0B4
:01005C002281
:1000030075080075092A750C4012005DE50915098C
:1000130070021508E5096408450870ED12005D15C6
:100023000CE50CB401F612005D0509E50970020543
:0700330008642A450870EF84
:01003A0022A3
:0500930012000380FBD8
:00000001FF
