:080106007F3FBF9FDFCFEF6FC9
:10000300E4FD20A005750801804C20A105750802B8
:10001300804420A205750803803C20A305750804CD
:10002300803420A405750805802C20A505750806D5
:10003300802420A605750807801C20A705750808DD
:100043008014E4F50820010E0509E509D394644002
:1000530005E4F509D201E508B40107300104C20142
:10006300B200E508B40208300105B2027590FFE55D
:1000730008B4030F30010C050AE50AD394034003C7
:10008300E4F50AE50A700FFEFF0FBF00010EBE067E
:10009300F8BFA4F58038E50AB40110E4FEFF0FBFF2
:1000A30000010EBE05F8BF14F58023E50AB4021063
:1000B300E4FEFF0FBF00010EBE03F8BF84F5800E00
:1000C300E4FEFF0FBF00010EBE01F8BFF4F53000E0
:1000D3002030020B0DEDD39407400CE4FD8008EDB6
:1000E30070047D0780011DED90010693F5900200D9
:0700F300057590FF020005F6
:030000000200FA01
:0C00FA00787FE4F6D8FD75812002000339
:00000001FF
