:030000000204A94E
:0C04A900787FE4F6D8FD75813E02035315
:1000030000010002000400080010002000400080EE
:1000130001000200040008001000200040008000DE
:1000230040008008FE1F10022001FF3F40004000F7
:10003300FE1F400048064408521020000000000044
:10004300000EFC0148089004FE3F02102108FC1F2B
:100053002000E0075002880144023A1C000000001F
:100063000802080204113E3FA210621022113E1240
:1000730022122210221022103E0A22040000000045
:100083000010BE3F0202BA1FAA10AA14AA14BA147F
:100093008A148A14AA141A0A0131C120000000002C
:1000A30040008000FE1F2210F10B28024401C00112
:1000B3002002F83F170410041004F00700000000AA
:1000C300000100013F01203FA220941254020802C4
:1000D300080214052405A208411020200000000096
:1000E3000201C410243E2012201227122412A4124B
:1000F3006412241A04020A023100C03F0000000007
:1001030010021012E83F0802CC1F4A124912C81FFE
:1001130008124802880208018806683800000000B7
:100123000008FC1F84088408FC0F840884088408E2
:10013300FC0F840884088208820A810400000000FE
:1001430010022001FE1F200124092805FF3F0000A3
:10015300F8070804F80708040804F807000000007B
:10016300400040004008FE1F42084208420842087F
:10017300FE0F40004000400040004000000000002F
:100183000008FE1F1002100210021012FF3F10029F
:100193001002100210020802040203020000000011
:1001A3002002240424042210FE3F2000E00F500804
:1001B3005004880208018402623C1D100000000004
:1001C3000408041EC4015F00C40F44084E09560905
:1001D3004505450544022405A438541000000000D9
:1001E300000000003CF0669C438200000000000019
:1001F3000000000030186008C00700000000000085
:10020300FF0023FF0043FF0063FF0083FF00A3FF02
:1002130000C3FF00E3FF0103FF0123FF0143FF01CD
:0D02230063FF0183FF01A3FF01C3FF01E39F
:10035300780E7C007D007BFF7A0279037E007F2D7F
:10036300120300E4F50AF50B750C00750D32E4F584
:1003730008F509AD0BED75F003A4240EF886030808
:10038300E6FA08E6F9E50925E0FFE50833FEE92F7B
:10039300F9EA3EFA900001120326F4FCED75F0032E
:1003A300A4240EF8860308E6FA08E6F9E50925E031
:1003B300FFE508338F82F583120326F4FDE5092553
:1003C300E0FFE50833FE74032FF58274003EF583E6
:1003D300E493FB74042FF58274003EF583E493F5F4
:1003E3003EAF0412043B0509E50970020508C394F6
:1003F30010E508648094805003020376E4F53EFB25
:100403007DFF7FFF12043BE50D150D7002150CD324
:10041300E50D9400E50C64809480400302037105AC
:100423000BE50B7002050AC3940FE50A6480948000
:08043300500302036B02036693
:10043B00E4FEEFC4131313540124FF92B4EF25E031
:10044B00FFC2B6D2B60EBE08E9E4FEEDC413131319
:10045B00540124FF92B4ED25E0FDC2B6D2B60EBE18
:10046B0008E9E4FEEBC4131313540124FF92B4EB1D
:10047B0025E0FBC2B6D2B60EBE08E9E4FEE53EC4EB
:10048B00131313540124FF92B4E53E25E0F53EC24D
:0D049B00B6D2B60EBE08E6C2B5D2B5C2B5E7
:0104A8002231
:10023000E709F608DFFA8046E709F208DFFA803EB0
:1002400088828C83E709F0A3DFFA8032E309F6089D
:10025000DFFA8078E309F208DFFA807088828C8305
:10026000E309F0A3DFFA806489828A83E0A3F608B9
:10027000DFFA805889828A83E0A3F208DFFA804C93
:1002800080D280FA80C680D4806980F2803380106A
:1002900080A680EA809A80A880DA80E280CA8033D3
:1002A00089828A83ECFAE493A3C8C582C8CCC5834B
:1002B000CCF0A3C8C582C8CCC583CCDFE9DEE7801B
:1002C0000D89828A83E493A3F608DFF9ECFAA9F09A
:1002D000EDFB2289828A83ECFAE0A3C8C582C8CCF0
:1002E000C583CCF0A3C8C582C8CCC583CCDFEADE09
:1002F000E880DB89828A83E493A3F208DFF980CC6B
:1003000088F0EF60010E4E60C388F0ED2402B40463
:100310000050B9F582EB2402B4040050AF2323450A
:06032000822390028073AD
:10032600BB010CE58229F582E5833AF583E022508C
:1003360006E92582F8E622BBFE06E92582F8E222D6
:0D034600E58229F582E5833AF583E49322F0
:00000001FF
