:03000000020003F8
:0C000300787FE4F6D8FD75813302004AD6
:10012E0010082050656368696E20536369656E63BD
:10013E0065201B1857656C636F6D6520746F207496
:0F014E00686520776F726C64206F66204D435593
:10008F0012015EE4F53374082533F8E6FF1201A17F
:10009F000533E533C3941040ED7FC0120195E4F5AD
:1000AF003374182533F8E6FF1201A10533E533C386
:1000BF00941B40ED7F071201957FC0120195E4F567
:1000CF003374182533F8E6FF1201A17F327E001238
:0D00DF00017C0533E533C3941B40E680DC53
:10017C00D3EF9400EE9400400F7D267C82DCFEDDF4
:08018C00FAEF1F70EB1E80E882
:010194002248
:1000EC00C2A58B807F017E00120115D2A77F057EF1
:1000FC0000120115C2A7EBC454F0F5807F017E00FD
:09010C00120115D2A77F057E0047
:10011500D3EF9400EE9400400F7DC77C01DCFEDD3B
:08012500FAEF1F70EB1E80E8E9
:01012D0022AF
:0C019500AB07C2A7C2A61200ECC2A72252
:0C01A100AB07C2A7D2A61200ECC2A72236
:10015E007F321201957F281201957F0C1201957F37
:0E016E00061201957F011201957F8002019516
:10000F0002008FE493A3F8E493A34003F68001F278
:10001F0008DFF48029E493A3F85407240CC8C333F2
:10002F00C4540F4420C8834004F456800146F6DFC1
:10003F00E4800B010204081020408090012EE47E22
:10004F00019360BCA3FF543F30E509541FFEE493B6
:10005F00A360010ECF54C025E060A840B8E493A37D
:10006F00FAE493A3F8E493A3C8C582C8CAC583CAA8
:10007F00F0A3C8C582C8CAC583CADFE9DEE780BE60
:01015D0000A1
:00000001FF
