:020000040800F2
:10000000B002002089010008F50700089F030008DE
:10001000F307000837020008C109000800000000CB
:10002000000000000000000000000000E5080008DB
:100030003902000800000000F70700087D090008E9
:100040009F0100089F0100089F0100089F01000810
:100050009F0100089F0100089F0100089F01000800
:100060009F0100089F0100089F0100089F010008F0
:100070009F0100089F0100089F0100089F010008E0
:100080009F0100089F0100089F0100089F010008D0
:100090009F0100089F0100089F0100089F010008C0
:1000A0009F0100089F0100089F0100089F010008B0
:1000B0009F0100089F010008000000009F01000848
:1000C0009F01000800000000000000009F010008E0
:1000D0009F0100089F0100089F0100080000000028
:1000E0009F0100089F0100089F01000800F002F82E
:1000F00000F03CF80AA090E8000C82448344AAF186
:100100000107DA4501D100F031F8AFF2090EBAE883
:100110000F0013F0010F18BFFB1A43F0010318473B
:10012000800A0000A00A0000103A24BF78C878C1F5
:10013000FAD8520724BF30C830C144BF04680C60ED
:10014000704700000023002400250026103A28BF35
:1001500078C1FBD8520728BF30C148BF0B60704739
:100160001FB5AFF300801FBD10B510BD00F029F81A
:100170001146FFF7F5FF00F025FC00F047F8FFF708
:10018000F3FF00F04DF8000008480047FEE7FEE7E7
:10019000FEE7FEE7FEE7FEE7FEE7FEE7FEE7FEE737
:1001A00003480449024A044B70470000ED00000870
:1001B000B0000020B0020020B0000020704770475F
:1001C0007047754600F028F8AE460500694653466C
:1001D00020F00700854618B020B5FFF7E1FFBDE825
:1001E00020404FF000064FF000074FF000084FF09E
:1001F000000B21F00701AC46ACE8C009ACE8C0092F
:10020000ACE8C009ACE8C0098D4670470446AFF3BE
:1002100000802046FFF7B3FF0048704750000020E1
:1002200003494FF01800ABBE704700000900000002
:10023000260002007047FEE77047000038B54FF611
:10024000FF70ADF8000003248DF8024010208DF8F7
:1002500003006946104800F023F8104D694628460F
:1002600000F01EF84FF47060ADF8000004208DF827
:1002700003008DF802406946284600F011F8C020BE
:10028000ADF800008DF802401C208DF8030069468F
:10029000284600F005F838BD00080140000C014078
:1002A000F0B5CB780022DC0603F00F0301D58C7883
:1002B00023430C884FF00F0C14F0FF0F4FF0010E8A
:1002C0001AD006680D880EFA02F42540A5420FD117
:1002D00095000CFA05F726EA070703FA05F6CD782C
:1002E0003E43282D01D1446102E0482D00D1046134
:1002F000521C082AE6D306600A88FF2A1ED94668DF
:100300005FF0000202F108050EFA05F40D882540A1
:10031000A5420FD195000CFA05F726EA070703FA64
:1003200005F6CD783E43282D00D14461CD78482D87
:1003300000D10461521C082AE4D34660F0BD0000DD
:10034000F0B5104D6B68440D260184B2C0F301571F
:10035000B440C0F30342032F06D1686823F07062F3
:1003600020F07060686008E0C00203D50320904070
:10037000834300E0A34343F0706201B122436A600B
:10038000F0BD0000000001400246926800200A42D1
:1003900000D0012070474161704701617047FEE75E
:1003A0000029018802D041F4806101E021F48061DC
:1003B000018070470246938A0020128B43EA024371
:1003C00023F07F428A4200D101207047C9438182D5
:1003D00070470029018802D041F0010101E021F0BD
:1003E00001010180704700001FB50020ADF800003A
:1003F0004BF6FF70ADF80200A020ADF804004FF4FA
:100400008060ADF806000001ADF808000548064C14
:10041000039001212046FFF7DCFF6946204600F0EB
:100420007DF91FBD801A0600005400402DE9F047F9
:10043000394E05468A4614464FF400373946304651
:1004400000F05CF90028F9D10121304600F042F9B2
:10045000324F30463946FFF7ADFF0028F9D0DFF8BC
:10046000C0800022B8F80000C1B2304600F0B7F9F1
:10047000DFF8B09030464946FFF79CFF0028F9D0DE
:1004800001213046FFF7A5FF5146304600F0AFF995
:10049000DFF8909009F1020949463046FFF78AFFDC
:1004A0000028F9D00121304600F014F939463046D1
:1004B000FFF780FF0028F9D0B8F800000122C1B290
:1004C000304600F08CF9154F7F1C39463046FFF757
:1004D00071FF0028F9D0114F3F3715E0012C07D1EB
:1004E00000213046FFF75CFF0121304600F0FCF8A8
:1004F00039463046FFF75EFF30B1304600F06CF908
:10050000641E05F8010BA4B2002CE7D13046BDE80B
:10051000F0470121FFF744BF0054004001000300F1
:1005200018000020820007002DE9F041054611F077
:1005300007000C46C0F10807C2F3C70602F007081F
:1005400014D1AEB309E008222146284600F048F84D
:1005500000F098F80834E4B208353000A6F101063E
:10056000F6B2F0D1B8F1000F2CD022E006B3D01BC8
:10057000C0F3C70600F00708A7B13A46214628464F
:1005800000F02EF800F07EF8E019C4B23D4409E016
:1005900008222146284600F023F800F073F80834BA
:1005A000E4B208353000A6F10106F6B2F0D1D9E781
:1005B000FFE742462146284600F012F8BDE8F04128
:1005C00000F060B8BDE8F08110B5FFF737FEFFF727
:1005D0000BFF0249A020088010BD00001800002079
:1005E0002DE9F041234E0446884615464FF4003766
:1005F0003946304600F082F80028F9D10121304612
:1006000000F068F81C4F30463946FFF7D3FE00284B
:10061000F9D01A4800220088C1B2304600F0DFF855
:10062000174F30463946FFF7C5FE0028F9D041463E
:10063000304600F0DCF8124FBF1C39463046FFF759
:10064000B9FE0028F9D00AE02178304600F0CFF852
:10065000641C39463046FFF7ADFE0028F9D028006B
:10066000A5F10105EDB2EFD13046BDE8F041012121
:1006700000F03AB8005400400100030018000020C8
:100680008200070070B5104D104C0121284600F083
:1006900021F81421284600F09DF820880022C1B2DC
:1006A000284600F09CF81421284600F093F88007B3
:1006B000EBD507492846FFF789FE2846BDE870407C
:1006C000012100F011B80000005400401800002083
:1006D000000400100029018802D041F4807101E07B
:1006E00021F48071018070470029018802D041F413
:1006F000007101E021F40071018070470246002082
:100700000B0F21F07F4101D0143201E0090C1832A7
:1007100012680A4200D001207047000070B50446FC
:10072000808886B00D4620F03F0601A800F090F8C2
:1007300026490398B0FBF1F189B20E43A6802288C6
:1007400022F001022280224BEA689A421CD8520011
:10075000B0FBF2F080B2042800D20420491C2184AE
:10076000A083208840F00100208020884FF6F531DA
:1007700008402988EA881143014321802889A988F3
:100780000843208106B070BD6B88A3F53F46FF3E4D
:1007900005D102EB4202B0FBF2F080B208E002EBBE
:1007A000C20303EB0212B0FBF2F080B240F48040CF
:1007B000020501D140F001004FF4967251434FF40D
:1007C0007A72B1FBF2F140F40040C7E740420F00FB
:1007D000A0860100405A7047008AC0B2704712B12B
:1007E00041F0010101E001F0FE0101827047018248
:1007F0007047FEE770477047044A0029D16901D06D
:10080000014300E08143D1617047000000100240C5
:10081000044A0029916901D0014300E081439161BC
:10082000704700000010024010B500F0A9F8012147
:100830000D20FFF7EDFF01210448FFF781FD0121A5
:10084000BDE810404805FFF7D7BF000000043000A6
:1008500010B5204A5168204B11F00C0103D0042937
:1008600001D0082901D0036011E05168022301F48E
:10087000701103EB9141536813F4803F02D0536829
:100880009B0301D5154B00E0134B594301605168A0
:10089000134B01F0F00109095C5C0168E140416023
:1008A000546804F4E064240A1C5D21FA04F48460B2
:1008B000546804F46054E40A1B5DD940C160526876
:1008C000074B02F44042920B1B1F9A5CB1FBF2F102
:1008D000016110BD0010024000127A0000093D00C5
:1008E0001E00002070470000224900200A6842F4E0
:1008F00080320A604FF4A0630A68401C12F4003F83
:1009000001D19842F8D10868800331D51A480268AD
:1009100042F010020260026822F0030202600268E4
:1009200042F00202026048684860486848604868CF
:1009300040F480604860486820F47C104860486853
:1009400040F4E8104860086840F08070086008686B
:100950008001FCD5486820F003004860486840F0FA
:10096000020048604868C0F381000228FAD170474D
:10097000FEE7000000100240002002407047000027
:100980000C48016841F00101016041680A4A1140C8
:1009900041600168094A11400160016821F4802129
:1009A0000160416821F4FE01416000218160FFF790
:1009B0009BBF0000001002400000FFF8FFFFF6FEA2
:1009C000FEE700002DE9F05FFFF72EFFFFF7FCFDCB
:1009D0006F4DDFF8C081704C4FF0000A4FF0010BF3
:1009E0004AF6FF794FF400712046FFF7CDFC58B965
:1009F000687848B1664801220521C01CFFF716FD42
:100A000085F801A085F800B04FF480712046FFF70B
:100A1000BBFC58B9287848B15D4801220521801CEB
:100A2000FFF782FD85F801B085F800A0E87842F272
:100A30001073B0FBF3F103FB11014FF47A76B1FBB5
:100A4000F6F2534968600C318F5CC8F80070B0FB57
:100A5000F6F706FB17074FF0640CB7FBFCF7CF5D0A
:100A6000C8F80470B0FBFCF70CFB17074FF00A0E38
:100A7000B7FBFEF7CF5D424647F08007C8F8087025
:100A8000B0FBFEF70EFB1700085CD060A878A860EA
:100A9000B0FBF3F703FB1703B3FBF6F3CB5C136177
:100AA000B0FBF6F306FB1303B3FBFCF3CB5C536123
:100AB000B0FBFCF30CFB1303B3FBFEF3CB5C374F33
:100AC00043F080039361B0FBFEF30EFB1303C95C9C
:100AD000401CD161A8700026904600BF58F826003F
:100AE000C1B2C7F81018C043C0B2C7F81408082E26
:100AF00045D2DFE806F00409161B2429363B2021E5
:100B00002046FFF748FC03E020212046FFF745FC84
:100B100010212046FFF73FFC08212046FFF73BFC51
:100B20002DE020212046FFF736FC03E0202120465F
:100B3000FFF733FC10212046FFF72FFCECE72021C4
:100B40002046FFF728FC03E020212046FFF725FC84
:100B500010212046FFF71FFC08212046FFF71DFC4F
:100B60000DE020212046FFF716FC03E0202120465F
:100B7000FFF713FC10212046FFF70FFCECE7484677
:100B8000401EFDD1761CF6B2082EA7D32AE700003E
:100B90000000002030000020000C01400000014057
:100BA000C00B0008000000203000000028010008F1
:100BB000F00B000830000020800200004401000813
:100BC0000101000000000000000000003F065B4F34
:100BD000666D7D077F6F400000000204060800007C
:100BE00000000102030401020304060708090000D3
:04000005080000ED02
:00000001FF
