:0A020A003F065B4F666D7D077F6FB6
:10013A007590FE2094037F01222095037F022220DE
:10014A0096037F03222097037F04227590FD209453
:10015A00037F05222095037F06222096037F07222C
:10016A002097037F08227590FB2094037F092220A1
:10017A0095037F0A222096037F0B222097037F0C88
:10018A00227590F72094037F0D222095037F0E227B
:0F019A002096037F0F222097037F10227F0022E1
:10000300E4FBFA12013AEF7029F50920001D050BF4
:10001300E50B7002050AD39432E50A9400500302FB
:1000230000A6E4F50AF50BD2008078E4F50AF50B97
:100033008071BF011530006BC200C3EB940FEA94CB
:100043002750600BBB00010A8059BF0215300053D3
:10005300C200D3EB9400EA94004048EB1B70441AAF
:100063008041BF051E30003B0509E509D394FA40E2
:1000730032E4F509EB940FEA942750270BBB0001F8
:100083000A8020BF061D30001A0509E509D394FA3A
:100093004011E4F509D3EB9400EA94004005EB1B0F
:1000A30070011AE4FF0FBFFAFCE4F5A00508E508A8
:1000B300D394034003E4F508E508700D7580037CD1
:1000C300037DE8AF03AE02803CE508B4011A7580F6
:1000D300027C037DE8AF03AE021201A97E007F64B8
:1000E300CFCDCFCECCCE801DE508B4022C758001D8
:1000F3007C007D64AF03AE021201A97E007F0ACFAC
:10010300CDCFCECCCE1201A9740A2FF58274023E54
:10011300F583E493F5A0020006E4F580FC7D0AAFC5
:1001230003AE021201A9740A2DF58274023CF58311
:07013300E493F5A0020006B1
:030000000201FEFC
:0C01FE00787FE4F6D8FD75812002000334
:1001A900BC000BBE0029EF8DF084FFADF022E4CC3A
:1001B900F875F008EF2FFFEE33FEEC33FCEE9DEC03
:1001C900984005FCEE9DFE0FD5F0E9E4CEFD22ED49
:1001D900F8F5F0EE8420D21CFEADF075F008EF2F93
:1001E900FFED33FD4007985006D5F0F222C398FD84
:0501F9000FD5F0EA2221
:00000001FF
