:030000000200B843
:0C00B800787FE4F6D8FD75810E0200FF91
:0E025C0012022812020512024612000380F858
:100003007FC0120278E50AC4540F2430FF12028421
:10001300E50A540F2430FF1202847F2D120284E577
:1000230009C4540F2430FF120284E509540F24300D
:10003300FF1202847F2D120284E508C4540F24307A
:10004300FF120284E508540F2430FF1202847F80DC
:100053001202787F321202847F30120284E50EC4CA
:10006300540F2430FF120284E50E540F2430FF1284
:1000730002847F2D120284E50CC4540F2430FF1236
:100083000284E50C540F2430FF1202847F2D1202E8
:1000930084E50BC4540F2430FF120284E50B540F84
:1000A3002430FF1202847F8D120278E50D54072459
:0500B30030FF02028491
:10018E00C2A58B807F017E001201B7D2A77F057EAC
:10019E00001201B7C2A7EBC454F0F5807F017E00B8
:0901AE001201B7D2A77F057E0003
:1001B700D3EF9400EE9400400F7DC77C01DCFEDD99
:0801C700FAEF1F70EB1E80E847
:0101CF00220D
:0C027800AB07C2A7C2A612018EC2A722CB
:0C028400AB07C2A7D2A612018EC2A722AF
:100228007F321202787F281202787F0C1202787FC0
:0E023800061202787F011202787F800202789F
:0E026A0081838587898B8D80828486888A8C2B
:090290000708000012010102132D
:1001D000C2B500C2B600D2B500E4FEEF1392B4EF90
:1001E000C313FFD2B600C2B6000EBE08EEE4FEEDA9
:1001F0001392B4EDC313FDD2B600C2B6000EBE0812
:04020000EEC2B50095
:0102040022D7
:10014400C2B500C2B600D2B500E4FDEF1392B4EF1D
:10015400C313FFD2B600C2B6000DBD08EE00E4FD25
:10016400A2B4E433FFC43333335480FCEEC3134CE2
:10017400FED2B600C2B6000DBD08E5C2B500D2B6C7
:0901840000C2B400D2B400AF06C1
:01018D00224F
:10020500E4FD7F8E1201D0E4FCEC90027193FF7443
:10021500082CF8E6FD1201D00CBC07ED7D807F8E21
:030225000201D003
:10024600E4FBEB90026A93FF12014474082BF8A6B4
:05025600070BBB07EDE2
:01025B002280
:1000C40002025CE493A3F8E493A34003F68001F2F4
:1000D40008DFF48029E493A3F85407240CC8C3333D
:1000E400C4540F4420C8834004F456800146F6DF0C
:1000F400E4800B0102040810204080900290E47E0A
:10010400019360BCA3FF543F30E509541FFEE49300
:10011400A360010ECF54C025E060A840B8E493A3C7
:10012400FAE493A3F8E493A3C8C582C8CAC583CAF2
:10013400F0A3C8C582C8CAC583CADFE9DEE780BEAA
:010299000064
:00000001FF
