:0D024100D294D2950000C2940000C2952214
:0D024E00C294D2950000D2940000C2952207
:0C014100AD071202417FA012014DAF0576
:10014D00E4FEEF30E704D2948002C2940000D29511
:10015D00EF25E0FF00000000000000C2950EBE0874
:10016D00E1D29400D29500000000000000000000D4
:04017D00C295000027
:01018100225B
:10020700E4FFFEEF25E0FFD294D29500003094057D
:1002170043070180035307FEC295000000000EBE8E
:0402270008E10000EA
:01022B0022B0
:0B0182007B007A007908753208AF2C72
:10018D00120141E4FDEDC3953250151201DCFF1251
:10019D00014D740129F9E43AFA000000000D80E5E3
:0301AD0002024EFD
:1000F40012014100001202417FA112014DE4FDE50D
:100104003214FFEDC39F501E120207EF1201F57463
:100114000129F9E43AFAC29400D29500000000C221
:100124009500000D80D9120207EF1201F5D2940058
:0D013400D29500000000C295000002024EAE
:1001B000C298E4FFE4F518F5192098120519E5191D
:1001C00070020518D39410E518942740EC22C298C9
:0B01D000741A2FF8A6990FBF12DAD3A3
:0101DB002201
:10022C00E4FFC299741A2FF8E6F5993099FDC2993A
:04023C000FBF12EEF0
:01024000229B
:1000030053890F438920758DFF758BFFD28E7598A9
:1000130050C2AC1201B050FBE51AB4010E751C06B8
:10002300751D02751E0412022C80E8E51A64027025
:100033006C12022CE4F52C1201B050D7E51BB4016D
:10004300D2E4F52D741C252DF8E6FF7408252DF850
:10005300A607052DE52DB408EB1201827408252CA3
:10006300F52CE4F518F5190519E51970020518B40E
:1000730000F5E518B402F0E4F52D7424252DF8E617
:10008300FF7408252DF8A607052DE52DB408EB12FE
:1000930001827408252CF52C12022C809AE51A642F
:1000A30003600302001612022CE4F52C1201B04087
:1000B30003020016E51B64016003020016FB7A00CD
:1000C3007908753210AF2C1200F47410252CF52C1E
:1000D300E4F52D7408252DF8E6FF741C252DF8A6EC
:1000E3000700000000052DE52DB410E712022C8057
:0100F300BB51
:0300000002025B9E
:0C025B00787FE4F6D8FD758132020003C4
:1001DC00BB010689828A83E0225002E722BBFE0221
:0901EC00E32289828A83E4932254
:1001F500BB010689828A83F0225002F722BBFE01E9
:02020500F322E2
:00000001FF
