:1000030000908C848484858684848484948E040004
:10001300000000000040807F00000000000000009E
:10002300106001E600F8888888FF8888881808002F
:100033000404FF40308F80412618182661C0400019
:1000430000040404841F24C484041F8404040400DF
:10005300100E00003F40404043404078210E040012
:10006300202424E4242424201010FF1010F0000086
:10007300081C0B080C054E24100C0320403F000005
:100083000000F848484848FF48484848F80000003E
:1000930000000F040404043F444444444F407000F0
:1000A30000000202020202E2120A060200800000BD
:1000B300010101010141817F0101010101010100F0
:1000C30000048444E4342C27242424E4040404009A
:1000D30002010000FF0909092949C97F0000000046
:1000E300FE02324E8200FE4ACA4A4A4A7E0000009D
:1000F300FF0002040300FF4020030C1221602000D4
:1001030000008040300E8400000E1060C08080002C
:1001130000012070282423311010147830010000CE
:1001230000109292929292929292120202FE000018
:1001330000001F0404040404040F0020403F0000D7
:10029F00E4FDFCC3ED9FEC9E50070DBD00010C80EB
:0102AF00F25C
:0102B000222B
:1001F300EF5402C43354E0FEEF5401C43333335499
:10020300804EFEEF540433333354F84EFEEF54085C
:1002130025E04EFEEF5410C3134EFEEF542013138C
:1002230013541F4EFEEF5440C41354074EFEEF54B5
:0902330080C413131354014EFFA3
:01023C00229F
:1002B100C2A0C2A11201F38F8000D2A200C2A22269
:1002C100D2A0C2A11201F38F8000D2A200C2A22249
:10026600D2A3D2A47F401202B1E4FCEC24B8FF1260
:1002760002B1E4FBE4FF1202C10BBB40F70CBC0861
:01028600EA8D
:010287002254
:10023D00AC0753057F530407EDC394405006D2A37A
:10024D00C2A48007C2A3D2A453053FED2440FF12E0
:09025D0002B1EC24B8FF0202B169
:030143000BE4FFCB
:04014600AA07A90556
:10014A00E4FC12023DE4FC75F020EBA42CF582E4F9
:10015A0035F0F583E5822403F582E5833400F583DF
:10016A00E493FF1202C10CBC10DDEA04FFAD0112D8
:10017A00023DE4FC75F020EBA42CF582E435F0F5A1
:10018A0083E5822413F582E5833400F583E493FF43
:07019A001202C10CBC10DDD4
:0101A100223B
:10028800C2A57FFA7E0012029FD2A5D2A3D2A412E1
:07029800029F7F3F0202B14B
:1001A200120288120266E4FBFDFF1201467D101264
:1001B20001437D201201430B7D30E4FF1201460B07
:1001C2007D40E4FF1201460B7D50E4FF1201460B15
:1001D2007D60E4FF1201460B7D70E4FF1201460BC5
:1001E200E4FD7F021201460B7D107F021201468060
:0101F200FE0E
:030000000202D128
:0C02D100787FE4F6D8FD7581070201A2D9
:00000001FF
